:100000000C943E000C9453000C9453000C94530039
:100010000C9453000C9453000C9453000C94530014
:100020000C9453000C9453000C9453000C94530004
:100030000C9453000C9453000C9453000C945300F4
:100040000C9453000C9453000C9453000C945300E4
:100050000C9453000C9453000C9453000C945300D4
:100060000C9453000C9453000C9453000C945300C4
:100070000C9453000C9453000C94530011241FBE95
:10008000CFEFD8E0DEBFCDBF11E0A0E0B1E0E6E108
:10009000FCE002C005900D92A63CB107D9F70E9482
:1000A000BB050C9409060C940000DC0186E3E4E037
:1000B000F1E001900D928A95E1F70895CF92DF92D9
:1000C000EF92FF920F931F93CF93DF93FB01CA012F
:1000D000D90198018701A6016630710589F4BC0138
:1000E0006A5071096330710508F064C082E0DF91E5
:1000F000CF911F910F91FF90EF90DF90CF900895D7
:100100006730710549F48930910541F18D309105D1
:1001100009F02DC289E1EBCF6830710549F48830D0
:10012000910521F08E30910509F021C286E0DFCFE4
:100130006930710549F48830910521F08E309105C0
:1001400009F015C28AE1D3CF6A30710549F48830CD
:10015000910501F38E30910509F009C288E1C7CFFE
:100160006B30710509F4BBCF6330710549F48430FD
:10017000910509F4A4C18E31910579F489E0B7CFD6
:100180006431710509F0A9C18430910509F499C160
:100190008E319105E9F48AE0AACF9C0125503109FE
:1001A0002931310508F48FC18D32910509F00FC155
:1001B0008DE09DCF8430910509F0DDC1E431F1057A
:1001C0000CF0D0C18CE093CFE431F10509F089C186
:1001D0009C01255031092931310508F474C1E80129
:1001E000488122E630E0B901641B7109681779077C
:1001F00079F04981E901C41BD109C817D90741F039
:10020000E8014A81241B31092817390709F005C183
:1002100086E16DCFE630F10501F5E9014881463010
:1002200040F04C9150E0435D5F4F4817590709F487
:1002300079C1E9014981463050F011964C911197EE
:1002400050E0435D5F4F4817590709F46BC1E9015E
:100250002A81263008F05CC1BFC1E730F10501F505
:10026000E9014881483040F04C9150E0435D5F4FD8
:100270004817590709F456C1E9014981483050F03F
:1002800011964C91119750E0435D5F4F4817590705
:1002900009F448C1E9012A81283008F039C19CC11C
:1002A000E830F105E9F2E431F10509F498CFE331E2
:1002B000F105C9F4E801488122E630E0B901641B88
:1002C00071096817790709F42DC14981241B310987
:1002D0002817390709F426C1E8014A8122E630E0EF
:1002E000241B31091BC1E231F10509F5EA0128811E
:1002F000243050F0E801688122E630E0261B310905
:100300002817390709F40EC1EA012981243050F079
:10031000E801698122E630E0261B310928173907F8
:1003200009F400C1EA012A812430B0F655C1E13157
:10033000F10511F5EA012881263050F0E8016881C5
:1003400022E630E0261B31092817390709F4EAC0F4
:10035000EA012981263050F0E801698122E630E087
:10036000261B31092817390709F4DCC0EA012A8164
:10037000263008F0B1CF30C1E031F10511F5EA01C6
:100380002881283050F0E801688122E630E0261B01
:1003900031092817390709F4C5C0EA012981283035
:1003A00050F0E801698122E630E0261B3109281768
:1003B000390709F4B7C0EA012A81283008F08CCF48
:1003C0000BC1EF30F105D9F2E330F10519F52C91AD
:1003D0008E329105A4F1422F50E0435D5F4F4817E4
:1003E000590741F1823691050CF0B7C011962C9156
:1003F000119730E0235D3F4F2817390731F11296EE
:100400002C91129730E0235D3F4F28173907E9F010
:100410008EE06DCEE430F1055CF18D32910509F08E
:10042000DFC0E431F1050CF47DC0E431F10531F5B4
:1004300081E15DCE8236910511F48FE058CE30E037
:10044000235D3F4F2817390789F011962C9111979A
:1004500030E0235D3F4F2817390741F012962C9169
:1004600030E0235D3F4F2817390799F585E13FCEEE
:100470001E161F0654F4853691053CF4181619060D
:1004800024F4EA31F1050CF466C09F0121503109D2
:100490002931310508F44ACEEF2B41F40097A9F039
:1004A000853691050CF422CE83E021CE8536910568
:1004B00074F4181619060CF419CE84E018CE87E0EF
:1004C00016CE8BE014CE88E012CE81E010CE85E00F
:1004D0000ECE8536910594F229CE643071050CF06C
:1004E00069CEE430F10509F054C02C9130E0235D71
:1004F0003F4F2817390719F4823691059CF0119661
:100500002C91119730E0235D3F4F2817390751F0A8
:1005100012962C91129730E0235D3F4F2817390730
:1005200009F07BCF82E1E3CDE431F10509F0A3CFFF
:100530008E3291050CF4A2CF2C9130E0235D3F4F19
:100540002817390721F0823691050CF461CF8536E2
:1005500091050CF09ACF83E1CACD8236910509F05E
:1005600074CF6BCFE431F10509F439CE12C0843079
:10057000910509F427CE8E31910509F025CEE4319D
:10058000F10584F7BF01695071096430710508F005
:1005900019CEE530F10509F03DCEE901488144303E
:1005A00040F04C9150E0435D5F4F4817590709F404
:1005B000B9CFE9014981443050F011964C9111971F
:1005C00050E0435D5F4F4817590709F4ABCFE9018D
:1005D0002A81243008F09CCF8D32910509F4A2CFF6
:1005E0008236910509F0A0CFE431F1050CF49ACFE1
:1005F000E431F10509F045CF80E179CDEF92FF922A
:100600000F931F93CF93DF93CDB7DEB76E970FB6DF
:10061000F894DEBF0FBECDBF0E94AC058BE1EAEAC5
:10062000F1E0DE01119601900D928A95E1F77E01CD
:100630008DE1E80EF11CC7010E94C9032BE1AE0158
:100640004F5F5F4F70E060E0C7010E94490510E016
:1006500000E0AE01445E5F4FB801C7010E94DA03BB
:100660006C8DCE014E960E946E050F5F1F4F0B31B1
:10067000110579F7C7010E94BF036E960FB6F89473
:10068000DEBF0FBECDBFDF91CF911F910F91FF90C5
:10069000EF9008952F923F924F925F926F927F92C8
:1006A0008F929F92AF92BF92CF92DF92EF92FF9282
:1006B0000F931F93CF93DF9300D000D000D00F9201
:1006C000CDB7DEB74C016A837B834C835D832E8379
:1006D0003F83302E212EBE2C0E94AC05512C412C84
:1006E000712C612CAB2CC32CD22CEE80FF800C81A2
:1006F0001D812A813B81A301B201C4010E945E00D9
:10070000E82FF0E0EE0FFF1FE80DF91D6081718109
:10071000CE0101960E9485058FEF681A780AE6E6F9
:100720006E167104F9F6F40166A577A5CE0101965F
:100730000E948505FFEF4F1A5F0A8BE148165104AE
:1007400079F6BB2019F0C4010E94FE0227960FB66D
:10075000F894DEBF0FBECDBFDF91CF911F910F91F7
:10076000FF90EF90DF90CF90BF90AF909F908F90D1
:100770007F906F905F904F903F902F9008950895D5
:1007800080EA809300011092B90080E28093B80063
:100790000895FC0180E88083CF010C94C003982F5A
:1007A0009370891305C0880F806A809300010895B3
:1007B0008FEF0895FA0194EA24E89093BC008091A9
:1007C000BC0087FFFCCF809100018093BB00209389
:1007D000BC008091BC0087FFFCCF8091B9008831BC
:1007E00061F784EA8093BC008091BC0087FFFCCF56
:1007F000809100018093BB0084E88093BC008091CD
:10080000BC0087FFFCCF7093BB0084E88093BC00E2
:100810008091BC0087FFFCCF6093BB0084E880938D
:10082000BC008091BC0087FFFCCF8091BC0087FF9B
:10083000FCCF84EA8093BC008091BC0087FFFCCF92
:10084000809100018F5F8093BB0084E88093BC009F
:100850008091BC0087FFFCCF84E88093BC0080912E
:10086000BC0087FFFCCF8091BB00808384E980932C
:10087000BC0080E0089594EA34E89093BC00809135
:10088000BC0087FFFCCF809100018093BB003093B8
:10089000BC008091BC0087FFFCCF8091B9008831FB
:1008A00061F784EA8093BC008091BC0087FFFCCF95
:1008B000809100018093BB0084E88093BC0080910C
:1008C000BC0087FFFCCF7093BB0084E88093BC0022
:1008D0008091BC0087FFFCCF6093BB0084E88093CD
:1008E000BC008091BC0087FFFCCF84EA8093BC00F1
:1008F0008091BC0087FFFCCF809100018F5F8093C7
:10090000BB0084E88093BC008091BC0087FFFCCFD3
:1009100084EC211105C084E98093BC0080E0089537
:10092000213009F484E88093BC009091BC0097FFCB
:10093000FCCFFA019091BB0091932150AF01E9CF18
:1009400094EA24E89093BC008091BC0087FFFCCF20
:10095000809100018093BB002093BC008091BC007B
:1009600087FFFCCF8091B900883161F784EA8093DA
:10097000BC008091BC0087FFFCCF80910001809378
:10098000BB0084E88093BC008091BC0087FFFCCF53
:100990007093BB0084E88093BC008091BC0087FF0B
:1009A000FCCF6093BB0084E88093BC008091BC00C6
:1009B00087FFFCCF4093BB0084E88093BC0080910C
:1009C000BC0087FFFCCF84E98093BC0080E00895E1
:1009D000FB01260F372F311DDC018C918150990BC3
:1009E000862B9F2B2817390718F09C012F5F3F4F4C
:1009F000822F8E1B24EA34E82093BC009091BC0027
:100A000097FFFCCF909100019093BB003093BC0006
:100A10009091BC0097FFFCCF9091B900983161F79D
:100A200094EA9093BC009091BC0097FFFCCF90910A
:100A300000019093BB0094E89093BC009091BC009F
:100A400097FFFCCFF093BB0094E89093BC0090918B
:100A5000BC0097FFFCCFE093BB0094E89093BC00F0
:100A60009091BC0097FFFCCF982F24E8911104C00F
:100A700094E99093BC000895FA0131913093BB0042
:100A80002093BC003091BC0037FFFCCF9150AF01E8
:100A9000EDCFDF92EF92FF920F931F93CF93DF93EF
:100AA000D82ED92F7B018A01C22F2C2FA801B70184
:100AB0008D2D9D2F0E94E804282F30E0E20EF31EBA
:100AC000C81B020F131FC111F0CF80E0DF91CF913F
:100AD0001F910F91FF90EF90DF9008958091C000DB
:100AE00085FFFCCF6093C60008951092C5008FEC7F
:100AF0008093C400E1ECF0E0808188618083E2ECC7
:100B0000F0E08081866080830895EF92FF920F93DA
:100B10001F93CF93DF93F82EE92EEB01DB010D90AD
:100B20000020E9F78D0101501109C017D10739F4F0
:100B3000DF91CF911F910F91FF90EF9008956991F0
:100B40008F2D9E2D0E946E05F0CF8091C00087FFF3
:100B5000FCCF8091C6000895CF93DF930F92CDB75D
:100B6000DEB7CE0101960E94750580E00F90DF91FF
:100B7000CF9108950895CDB7DEB7C254D1090FB60D
:100B8000F894DEBF0FBECDBFCE0101960E94550086
:100B900080913A0190913B01A0913C0123968DAF49
:100BA0009EAFAFAF23978091010190910201A09178
:100BB00003018DAF9EAFAFAF80913E0190913F0199
:100BC000A09140018AAF9BAFACAF80914201909160
:100BD0004301A09144018FAB98AFA9AFE12C8E01E6
:100BE000095C1F4F9E01235C3F4FAE01465C5F4F87
:100BF000BE01605C7F4FCE0101960E944A0390E0E7
:100C000080E0CE5BDF4F0FB6F894DEBF0FBECDBFE6
:060C10000895F894FFCFE7
:100C1600A02A0000460148014C0150015401580128
:100C26005C016001640168016C0170017401780166
:100C36007C018001840188018C01460190019401A8
:100C460098019C019E01A201A6010D1A2700080623
:100C56000400060606002000E2948C00E294800060
:100C6600E2949000E2949400E2949800E294820068
:100C7600E2948F00E2948100E2949300E2949B0058
:100C8600E2949700E2948300E2959400E295900046
:100C9600E2959700E2959D00E2959A00E295910013
:100CA600E295A300E295A600E295A9000A00E29566
:100CB600B100E295B200E296A90050726F647569C0
:100CC60074207061723A204D6F7573717565746129
:060CD60069726573000065
:00000001FF
