:100000000C943E000C945B000C945B000C945B0021
:100010000C945B000C945B000C945B000C945B00F4
:100020000C945B000C945B000C945B000C945B00E4
:100030000C945B000C945B000C945B000C945B00D4
:100040000C945B000C945B000C945B000C945B00C4
:100050000C945B000C945B000C945B000C945B00B4
:100060000C945B000C945B000C945B000C945B00A4
:100070000C945B000C945B000C945B0011241FBE7D
:10008000CFEFD8E0DEBFCDBF11E0A0E0B1E0E0EC03
:10009000F6E002C005900D92A830B107D9F721E033
:1000A000A8E0B1E001C01D92AC30B207E1F70E94B8
:1000B00038030C945E030C9400002F923F924F92F1
:1000C0005F926F927F928F929F92AF92BF92CF92E8
:1000D000DF92EF92FF920F931F93CF93DF93CDB7F1
:1000E000DEB760970FB6F894DEBF0FBECDBF80912C
:1000F000000190910101A09102018E879F87A88B3A
:100100008B879C87AD878091040190910501A09118
:10011000060188879987AA878D839E83AF838E0186
:10012000025F1F4F5E0181E1A80EB11C38018824D7
:100130008394912CF801C1908F01D12C88E091E03B
:100140000E94B9028FEB92E10197F1F700C0000025
:1001500088E091E00E94BB02EFEAF4E03197F1F70A
:1001600000C00000F12CE12CC4010E2C02C0880F4D
:10017000991F0A94E2F78C219D21892B09F426C14D
:1001800088E091E00E94B9028FE599E00197F1F7CC
:1001900000C0000088E091E00E94BB02EFEAF4E0BA
:1001A0003197F1F700C00000FFEFEF1AFF0A80E17E
:1001B000E816F104C9F6A016B10609F0BBCF8E010E
:1001C000085F1F4F6E019BE0C90ED11C28013C2C1B
:1001D0002D2C88248394912CF801A1908F01B12CAF
:1001E00088E091E00E94B9028FEB92E10197F1F76C
:1001F00000C0000088E091E00E94BB02EFEAF4E05A
:100200003197F1F700C00000F12CE12CC4010E2C55
:1002100002C0880F991F0A94E2F78A219B21892B3B
:1002200009F4DDC088E091E00E94B9028FE599E011
:100230000197F1F700C0000088E091E00E94BB0246
:10024000EFEAF4E03197F1F700C00000FFEFEF1A9A
:10025000FF0A80E1E816F104C9F60C151D0509F046
:10026000BBCF032D122DAA24A394B12CF801C19069
:100270008F01D12C88E091E00E94B9028FEB92E1CE
:100280000197F1F700C0000088E091E00E94BB02F6
:10029000EFEAF4E03197F1F700C00000F12CE12C17
:1002A000C5010E2C02C0880F991F0A94E2F78C2119
:1002B0009D21892B09F49CC088E091E00E94B9023D
:1002C0008FE599E00197F1F700C0000088E091E028
:1002D0000E94BB02EFEAF4E03197F1F700C00000A2
:1002E000FFEFEF1AFF0A80E1E816F104C9F6601685
:1002F000710609F0BBCF7E0195E0E90EF11CAA243E
:10030000A394B12CF701C1907F01D12C88E091E03A
:100310000E94B9028FEB92E10197F1F700C0000053
:1003200088E091E00E94BB02EFEAF4E03197F1F738
:1003300000C0000010E000E0C501002E02C0880FE0
:10034000991F0A94E2F78C219D21892B09F459C049
:1003500088E091E00E94B9028FE599E00197F1F7FA
:1003600000C0000088E091E00E94BB02EFEAF4E0E8
:100370003197F1F700C000000F5F1F4F00311105EA
:10038000D9F64E145F0409F0BDCFCE0101960E944C
:100390001902CE0101960E94420260960FB6F894AF
:1003A000DEBF0FBECDBFDF91CF911F910F91FF90A8
:1003B000EF90DF90CF90BF90AF909F908F907F9005
:1003C0006F905F904F903F902F90089588E091E05C
:1003D0000E94B9028FEA94E00197F1F7D9CE88E044
:1003E00091E00E94B9028FEA94E00197F1F722CFE1
:1003F00088E091E00E94B9028FEA94E00197F1F75A
:1004000063CF88E091E00E94B9028FEA94E00197FF
:10041000F1F7A6CF4A9B0BC08FE19EE40197F1F75D
:1004200000C0000089B182FB882780F9089580E030
:100430000895FC0182E290E091838083128281E042
:100440008383099A089A08950F93DC01FA011196A3
:100450007C936E9312962C93129713960C93308183
:1004600081E090E0AC0101C0440F0A95EAF7342B1B
:100470003083308101C0880F2A95EAF7832B80836F
:100480000F910895FC01A081B1812C91328181E00E
:1004900090E0AC0101C0440F3A95EAF7242B2C936D
:1004A000A081B1812C91338101C0880F3A95EAF780
:1004B000809582238C930895FC01A081B1812C91B9
:1004C000338181E090E0AC0101C0440F3A95EAF736
:1004D000242B2C93A081B1812C91328101C0880FF3
:1004E0003A95EAF7809582238C930895CF93DF9312
:1004F000D82FC92F0E945C028FE19EE40197F1F78B
:1005000000C000008D2F9C2F0E9442028FE99FE0C7
:100510000197F1F700C00000DF91CF910895FC0131
:10052000A081B1814C91828121E030E0B90102C00B
:10053000660F771F8A95E2F7CB01938101C0220FE6
:100540009A95EAF7822B809584238C930895239AB9
:100550002B9A14BC88E687BD82E484BD81E085BD0A
:100560001092820008952498089583B18295817035
:1005700008950C94A70284B58D7F84BD84B58F7BCC
:1005800084BD85B58E7F85BD17BC2B980895CF930C
:10059000DF93D82FC92F0E94A7028FEB92E101971A
:1005A000F1F700C000008D2F9C2F0E94BB028FEA44
:1005B00094E00197F1F700C00000DF91CF9108951A
:1005C000D82FC92F7B010E94C70216E0CC24C39408
:1005D000D12CC601012E02C0880F991F0A94E2F7A0
:1005E0008E219F21892BB1F08D2F9C2F0E94A70275
:1005F0008FE599E00197F1F700C000008D2F9C2F47
:100600000E94BB028FEA94E00197F1F700C000005E
:100610001150DFCF8D2F9C2F0E94A7028FEA94E00C
:100620000197F1F7E9CFF8941AB8E9E6F0E0808194
:1006300084608083E99A78940895109285001092DE
:100640008400E1E8F0E08081816080830895FC010E
:10065000A1E8B0E08C91887F8C9380918400909188
:100660008500918380830895FC01808191810895A4
:1006700000D000D0CDB7DEB78E010F5F1F4FC8018D
:100680000E9419022FEF80E792E0215080409040B5
:10069000E1F700C000000E940A02882399F3C80114
:1006A0000E945C022FEF83ED90E321508040904048
:1006B000E1F700C000000E945D00E4CFF894FFCF96
:0806C0000214080004060A0000
:00000001FF
