:100000000C943E000C9487060C945B000C945B00EF
:100010000C945B000C945B000C945B000C945B00F4
:100020000C945B000C945B000C945B000C945B00E4
:100030000C945B000C94B2040C945B000C945B0079
:100040000C945B000C945B000C945B000C945B00C4
:100050000C945B000C945B000C945B000C945B00B4
:100060000C945B000C945B000C945B000C945B00A4
:100070000C945B000C945B000C945B0011241FBE7D
:10008000CFEFD8E0DEBFCDBF11E0A0E0B1E0EEEFF2
:10009000F3E202C005900D92A83BB107D9F721E029
:1000A000A8EBB1E001C01D92AC3BB207E1F70E94A2
:1000B00093110C94FD110C940000CF93DF93EC018D
:1000C0000E94520519821A821B821C821D821E8286
:1000D0001F82188619861A861B861C861D861E8618
:1000E0001F86188A198A81E08A8B1B8A1C8A88E3FA
:1000F0008D8B82E38E8BCE0147960E94E40A4F8956
:10010000588D698D7A8D8B8D9C8D0E94E2052D8F87
:100110003E8F4F8F58A369A37AA3CE0183960E9486
:10012000C404CE0187960E947B0418A6DF91CF916C
:100130000895CF93DF93EC016D9644E664E6CE011B
:100140000E941E062FEF80E792E0215080409040F1
:10015000E1F700C00000CE01DF91CF910C9476064C
:100160000F931F93CF93DF93EC018981843008F4C0
:1001700046C08E01035E1F4FC8010E9476062FEF16
:1001800089E698E1215080409040E1F700C00000EE
:10019000CE010E9499004E896D89C8010E941E06F9
:1001A0002FEF89E698E1215080409040E1F700C0B0
:1001B0000000CE010E949900CE010E946E058111BF
:1001C00023C0CE010E949900CE010E945B058823C6
:1001D00009F1CE010E949900CE010E946E058111A5
:1001E00021C0C8010E9476062FEF84E39CE02150D5
:1001F00080409040E1F700C0000081E08B8BDF91F0
:10020000CF911F910F9108954E8960E0C8010E941F
:100210001E06D2CF4E8943506D896350C8010E949B
:100220006006D2CF4E896D89C8010E941E06D4CFC8
:100230000F931F93CF93DF93EC018C01035E1F4F4D
:10024000CE010E946505882361F0CE010E947D05E4
:10025000811107C06D896B5F40E0C8010E941E06D6
:10026000EFCFDF91CF911F910F9108950F931F93BF
:10027000CF93DF93EC018C01035E1F4FCE010E94F0
:100280006005882361F0CE010E945605811107C0E8
:100290004E894B5F60E0C8010E941E06EFCFDF91E0
:1002A000CF911F910F9108950F931F93CF93DF93D9
:1002B000EC018C01035E1F4F40E064E6C8010E9420
:1002C0001E062FE788E391E0215080409040E1F73F
:1002D00000C00000CE010E946A058823E1F0C80139
:1002E0000E9476062FEF84E39CE0215080409040EE
:1002F000E1F700C0000044E664E6C8010E941E0663
:100300008FE59AEE0197F1F700C00000DF91CF91E1
:100310001F910F9108956D896E5F40E0C8010E94A2
:100320001E06D8CF0F931F93CF93DF93EC010E944B
:1003300099008E01035E1F4FCE010E946E05811150
:1003400026C044E664E6C8010E944A062FE788E317
:1003500091E0215080409040E1F700C00000CE01C4
:100360000E945B058823C9F0C8010E9476062FEF22
:1003700084E39CE0215080409040E1F700C0000001
:10038000CE01DF91CF911F910F910C94990040E025
:100390006D89C8010E941E06CFCF4E896D89C801A4
:1003A0000E944A06DCCFEF92FF920F931F93CF93E8
:1003B000DF93EC017C0127E2E20EF11CC7010E94F1
:1003C0007C04CE010E9499008E01035E1F4FCE0176
:1003D0000E946E05811199C0C7010E94A704C8013F
:1003E0000E947606C7010E94AD049C019A892B30B9
:1003F000310508F099C0992309F48FC08C81FE0162
:10040000E80FF11D86E081878FEF99E628E18150A2
:1004100090402040E1F700C00000CE010E9499000A
:100420004E896D89C8010E941E068FEF9EE924E265
:10043000815090402040E1F700C00000C8010E94B8
:1004400076068FEF99E628E1815090402040E1F751
:1004500000C0000044E664E6C8010E9460068FE721
:1004600098E321E0815090402040E1F700C0000077
:10047000CE010E945605882309F464C0C8010E9479
:1004800076068FEF99E628E1815090402040E1F711
:1004900000C00000CE010E949900CE010E948A0592
:1004A000882309F455C0C8010E9476068FEF99E6AB
:1004B00028E1815090402040E1F700C00000CE01CB
:1004C0000E9499004E896D89C8010E941E068FEF17
:1004D0009EE924E2815090402040E1F700C00000F6
:1004E000C8010E9476068FEF99E628E1815090407E
:1004F0002040E1F700C00000CE01DF91CF911F91B5
:100500000F91FF90EF900C9454014E894A5F6D89D2
:100510006A5FC8010E941E065ACF8D81FE01E80F56
:10052000F11D86E0878770CF992331F08C81FE0121
:10053000E80FF11D88E067CF8D81FE01E80FF11D06
:1005400088E0F0CF4E896D89C8010E94600690CF87
:100550004E894C5F6D89C8010E941E069ECFEF92A6
:10056000FF920F931F93CF93DF93EC010E949900AA
:100570008E01035E1F4FCE010E946E05811140C0A7
:100580007E0127E2E20EF11CC7010E947C0444E6D2
:1005900064E6C8010E944A068FE798E321E0815093
:1005A00090402040E1F700C00000CE010E945605B7
:1005B000882369F1C7010E94A704C8010E9476063A
:1005C0008FEF99E628E1815090402040E1F700C08C
:1005D0000000C7010E94AD04499738F1CE010E9486
:1005E00092018A898823D9F08C81C80FD11D84E0BB
:1005F0008987DF91CF911F910F91FF90EF90089520
:100600006D896B5F40E0C8010E941E06B4CF4E8921
:1006100043506D896750C8010E944A06C6CF8D813C
:10062000C80FD11D84E08F87E4CFCE01DF91CF9139
:100630001F910F91FF90EF900C94D3010F931F9394
:10064000CF93DF93EC012FEF84E39CE021508040B7
:100650009040E1F700C00000CE010E9499008E0199
:10066000035E1F4F4E896D89C8010E941E062FEF41
:1006700089E698E1215080409040E1F700C00000F9
:10068000CE010E946E05882311F081E088A744E620
:1006900064E6C8010E944A068FE39CE90197F1F7DE
:1006A00000C000004E8945506D896550C8010E9408
:1006B0004A069FEF23EC89E0915020408040E1F70B
:1006C00000C00000CE010E946E05882311F081E079
:1006D00088A744E664E6C8010E9460069FEB24ED0B
:1006E00081E0915020408040E1F700C000004E8939
:1006F000465F6D89665FC8010E9460069FEF24E334
:100700008CE0915020408040E1F700C00000CE0115
:100710000E946E05882311F081E088A74E896D89BB
:10072000C8010E9460069FE728E381E091502040C5
:100730008040E1F700C00000CE010E946E058823D2
:1007400011F081E088A744E664E6C8010E944A06E9
:100750009FEB24ED81E0915020408040E1F700C004
:1007600000004E896D89C8010E944A069FEF23EC64
:1007700089E0915020408040E1F700C00000CE01A8
:100780000E946E05882311F081E088A744E664E6A4
:10079000C8010E9434069FE728E381E09150204081
:1007A0008040E1F700C000004E896D89C8010E94B9
:1007B00034069FEF23EC89E0915020408040E1F720
:1007C00000C00000C8010E9476069FEF29E688E17C
:1007D000915020408040E1F700C00000CE010E940F
:1007E0006E0581110DC088A581110AC0CE010E943D
:1007F000540189818F5F89838330F1F41A8A0DC097
:1008000018A6CE010E94AF028A89882371F08A81DE
:100810008F5F8A838C818F5F8C83CE018796DF9177
:10082000CF911F910F910C947C048B818F5F8B83F0
:100830008D818F5F8D83F1CF813079F3DF91CF91FF
:100840001F910F9108950F931F93CF93DF93EC01A6
:100850000E9497058230910509F446C084F4009700
:10086000B9F00197D1F14E89485F6D89685FCE017B
:100870004D96DF91CF911F910F910C941E06039717
:1008800091F7CE01DF91CF911F910F910C9436011A
:100890008E01095D1F4FC8010E94A704CE014D962D
:1008A0000E9476068A89882379F0C8010E94AD04E7
:1008B0009A81FE01E90FF11D8683CE01DF91CF9170
:1008C0001F910F910C941E03C8010E94AD049B81DF
:1008D000FE01E90FF11D8487F0CFCE01DF91CF91AA
:1008E0001F910F910C94B000CE01DF91CF911F9119
:1008F0000F910C9418010895E1E8F0E08081886080
:1009000080838081846080831092850010928400AF
:1009100085E39CE09093890080938800EFE6F0E007
:100920008081826080831092B9011092B80178941E
:1009300008951092B9011092B8011092850010929A
:100940008400E1E8F0E08081846080830895E1E83C
:10095000F0E08081887F808308958091B801909134
:10096000B90108958F938FB78F939F938091B801AA
:100970009091B90101969093B9018093B8019F912C
:100980008F918FBF8F911895FC0182E290E0918347
:100990008083128281E08383099A089A08950F93D5
:1009A000DC01FA0111967C936E9312962C931297A8
:1009B00013960C93308181E090E0AC0101C0440FAC
:1009C0000A95EAF7342B3083308101C0880F2A95CD
:1009D000EAF7832B80830F910895FC01A081B181F8
:1009E0002C91328181E090E0AC0101C0440F3A9536
:1009F000EAF7242B2C93A081B1812C91338101C083
:100A0000880F3A95EAF7809582238C930895FC012C
:100A1000A081B1812C91338181E090E0AC0101C0D3
:100A2000440F3A95EAF7242B2C93A081B1812C91A5
:100A3000328101C0880F3A95EAF7809582238C9322
:100A40000895CF93DF93D82FC92F0E9407058FE118
:100A50009EE40197F1F700C000008D2F9C2F0E94AB
:100A6000ED048FE99FE00197F1F700C00000DF91EE
:100A7000CF910895FC01A081B1814C91828121E048
:100A800030E0B90102C0660F771F8A95E2F7CB010B
:100A9000938101C0220F9A95EAF7822B80958423D7
:100AA0008C93089587B1837887B9089586B183FBC5
:100AB000882780F9089586B185FB882780F90895F5
:100AC00086B182FB882780F9089586B186FB882746
:100AD00080F9089586B182958170089532990BC08E
:100AE000339909C0349907C0359905C086B186FB92
:100AF000882780F9089581E00895369B07C03499CE
:100B000007C086B183FB882780F9089580E00895A7
:100B100081E00895329B07C0349907C086B185FBF8
:100B2000882780F9089580E0089581E00895CF93A3
:100B3000DF93D82FC92F0E947D0581111FC08D2FF3
:100B40009C2F0E948A0581111CC0369907C03299DA
:100B50000EC084E090E0DF91CF9108958D2F9C2FFF
:100B60000E947D058111F3CF82E090E0F4CF8D2FBC
:100B70009C2F0E948A0590E00396EDCF90E080E0E4
:100B8000EACF81E090E0E7CFCF93DF9300D000D0B1
:100B900000D0CDB7DEB7DC0129833A834B835C8379
:100BA0006D837E8386E0FE01319601900D928A95D9
:100BB000E1F726960FB6F894DEBF0FBECDBFDF91EA
:100BC000CF910895CF93DF93CDB7DEB762970FB67D
:100BD000F894DEBF0FBECDBF4D875E876F87788BE1
:100BE000898B9A8B86E0FE013D96DE01119601907D
:100BF0000D928A95E1F786E0FE013196DE011796A7
:100C000001900D928A95E1F786E0FE013796DE01AC
:100C1000119601900D928A95E1F729813A814B81D5
:100C20005C816D817E8180E090E062960FB6F894E1
:100C3000DEBF0FBECDBFDF91CF9108950F931F93FD
:100C4000CF93DF93D82FC92F162F042F40E060E0F9
:100C50000E94310B402F612F8D2F9C2FDF91CF9160
:100C60001F910F910C94650B0F931F93CF93DF93FC
:100C7000D82FC92F162F042F41E061E00E94310BBD
:100C8000402F612F8D2F9C2FDF91CF911F910F91BE
:100C90000C94650B0F931F93CF93DF93D82FC92F1D
:100CA000162F042F41E060E00E94310B402F612F8E
:100CB0008D2F9C2FDF91CF911F910F910C94650B7D
:100CC0000F931F93CF93DF93D82FC92F162F042F85
:100CD00040E061E00E94310B402F612F8D2F9C2F4F
:100CE000DF91CF911F910F910C94650B40E060E074
:100CF0000C94650BF8945298E89AE9E6F0E080814C
:100D000082608083808181608083789408951F92BF
:100D10000F920FB60F9211242F933F934F935F932F
:100D20006F937F938F939F93AF93BF93EF93FF93B3
:100D3000CF93DF9300D000D0CDB7DEB7CE010196C0
:100D40000E94C404CE0101960E94ED048FE59AEE44
:100D50000197F1F700C000001092000181E080933C
:100D6000BB010F900F900F900F90DF91CF91FF91EB
:100D7000EF91BF91AF919F918F917F916F915F9113
:100D80004F913F912F910F900FBE0F901F9018958C
:100D9000CF93DF93EC010E945D001AA619A6CE0145
:100DA0008B960E94E70ECE01C3960E94C40484E095
:100DB0008FABCE01C8960E945D0ACE01805C9F4F2A
:100DC0000E947D0B0E94300AC958DF4F1882DF91C4
:100DD000CF910895FC0180B197A9892359F48FE53B
:100DE0009AEE0197F1F700C0000090B187A998230F
:100DF00081E009F080E008950F931F93CF93DF9374
:100E0000EC01F8940AE010E0E396CE010E94070599
:100E10002FEF80E792E0215080409040E1F700C042
:100E20000000CE010E943A052FEF80E792E02150AA
:100E300080409040E1F700C000000150110929F7FF
:100E40007894DF91CF911F910F910895CF93DF9305
:100E5000EC018B89882309F448C02FEF89E698E1DB
:100E6000215080409040E1F700C000009E819B5FD0
:100E70009E838C858B5F8C872F81920F9F839D85AE
:100E8000890F8D87FE019E012D5F3F4F87E091E323
:100E90004185493008F081874785493008F08787C8
:100EA0004681423308F096834485423308F09487A4
:100EB0003196E217F30761F78C81823030F08DE0D4
:100EC0008E838AE18F8387E288878D81823030F03C
:100ED0008DE08C878AE18D8787E28E8781E090E0C4
:100EE0009AA789A7DF91CF910895CE010E9423048C
:100EF000B0CFAF92BF92CF92DF92EF92FF920F935B
:100F00001F93CF93DF93EC016C0186E0C80ED11CD8
:100F10008E01075F1F4F58017E0196E7E90EF11C15
:100F2000F60161916F01C7010E94F2098FE097E21B
:100F30000197F1F700C00000C016D10689F78501BE
:100F4000FE013C966F015F01F80161918F01C701BD
:100F50000E94F2098FE097E20197F1F700C00000CC
:100F60000C151D0589F78501FE013F966F015F0194
:100F7000F80161918F01C7010E94F2098FE097E2A9
:100F80000197F1F700C00000C016D10689F785016E
:100F90006296F80161918F01C7010E94F2098FE00A
:100FA00097E20197F1F700C000000C171D0789F7C1
:100FB000DF91CF911F910F91FF90EF90DF90CF9035
:100FC000BF90AF900895EF92FF920F931F93CF932E
:100FD000DF93EC010E947A06CE01C3960E94ED04D5
:100FE00081E0809300011092BB011092BA0111E0E0
:100FF00080910001811124C08091BB01882359F1A7
:1010000003E010E07E0188E3E80EF11CC7010E94B6
:10101000C40A8FE59AEE0197F1F700C00000C701FE
:101020000E94830A0150110989F782E090E09AA793
:1010300089A7DF91CF911F910F91FF90EF900895B5
:10104000CE010E94EA06882399F2109200011093C3
:10105000BA01F894CDCF8091BA01882351F383E08F
:1010600090E0E5CFEF92FF920F931F93CF93DF9322
:101070008C01F12CE12CEC01E396F80186818E15B0
:101080001F0411F00CF079C0CE010E94ED04FFEFB7
:1010900029E688E1F15020408040E1F700C00000DF
:1010A000F12CE12CF80187818E151F0411F00CF052
:1010B00080C0CE010E94ED04FFEF29E688E1F150E7
:1010C00020408040E1F700C00000F12CE12CF80145
:1010D00080858E151F0411F00CF087C0CE010E9490
:1010E0000705FFEF29E688E1F15020408040E1F755
:1010F00000C00000F12CE12CF80181858E151F0441
:1011000011F00CF08EC0CE010E940705FFEF29E61A
:1011100088E1F15020408040E1F700C00000F12C50
:10112000E12CF80184858E151F0411F00CF095C098
:10113000F12CE12CF80185858E151F0411F00CF0BF
:10114000A8C0CE010E94ED04FFEF29E688E1F1502E
:1011500020408040E1F700C00000F12CE12CF801B4
:1011600087858E151F0411F00CF0AFC0DF91CF9171
:101170001F910F91FF90EF900895CE010E940705F7
:101180002FEF82E597E0215080409040E1F700C0CA
:101190000000CE010E943A05EFEFF2E527E0E150B2
:1011A000F0402040E1F700C000008AE0E80EF11CAA
:1011B00064CFCE010E9407059FEFE2E5F7E0915072
:1011C000E040F040E1F700C00000CE010E943A0587
:1011D0002FEF82E597E0215080409040E1F700C07A
:1011E0000000EAE0EE0EF11C5DCFCE010E94070583
:1011F0009FEFE2E5F7E09150E040F040E1F700C0FA
:101200000000CE010E943A052FEF82E597E02150C1
:1012100080409040E1F700C00000EAE0EE0EF11CD3
:1012200056CFCE010E94ED049FEFE4E3FCE0915025
:10123000E040F040E1F700C00000CE010E943A0516
:101240002FEF84E39CE0215080409040E1F700C004
:101250000000EFEFEE1AFE0A4FCFCE010E94070505
:101260009FEFE2E5F7E09150E040F040E1F700C089
:101270000000CE010E943A052FEF82E597E0215051
:1012800080409040E1F700C00000E5E0EE0EF11C68
:1012900048CFCE010E940705FFEF20E782E0F15022
:1012A00020408040E1F700C00000CE010E943A05D6
:1012B0009FEFE0E7F2E09150E040F040E1F700C03E
:1012C000000025E0E20EF11C35CFCE010E94ED04B6
:1012D0009FEFE0E7F2E09150E040F040E1F700C01E
:1012E0000000CE010E943A052FEF80E792E02150E6
:1012F00080409040E1F700C00000EFEFEE1AFE0AD8
:101300002ECFEF920F931F93CF93DF93EC0189A51C
:101310009AA582309105A9F154F4009711F1019733
:1013200041F1DF91CF911F910F91EF9008950397B5
:10133000C1F7CE01C3960E9407059E01245F3F4F6F
:10134000FE01E958FF4FAE01475F5F4FBE016A5F84
:101350007F4FE0808901CE01805C9F4F0E94720E1A
:1013600038C0CE01DF91CF911F910F91EF900C9477
:101370002607CE01DF91CF911F910F91EF900C9432
:10138000E307CE01C3960E943A052FEF83ED90E369
:10139000215080409040E1F700C000008E01055DC3
:1013A0001F4FBE016A5F7F4FC8010E94EA0EBE0157
:1013B000675F7F4FC8010E94EA0EBE01645F7F4FE6
:1013C000C8010E94EA0EBE01615F7F4FC8010E9402
:1013D000EA0E81E090E09AA789A7A3CFFC0172A74B
:1013E00061A708958091C00085FFFCCF6093C6007F
:1013F00008951092C5008FEC8093C400E1ECF0E0FA
:10140000808188618083E2ECF0E080818660808367
:101410000895EF92FF920F931F93CF93DF93F82ECF
:10142000E92EEB01DB010D900020E9F78D01015061
:101430001109C017D10739F4DF91CF911F910F9196
:10144000FF90EF90089569918F2D9E2D0E94F209D3
:10145000F0CF8091C00087FFFCCF8091C600089537
:10146000CF93DF930F92CDB7DEB7CE0101960E94E6
:10147000F90980E00F90DF91CF91089508950F93BF
:10148000DC01FA0111967C936E9312962C931297BD
:1014900013960C93308181E090E0AC0101C0440FC1
:1014A0000A95EAF7342B3083308101C0880F2A95E2
:1014B000EAF7832B80830F910895FC0182E290E08C
:1014C0009183808384E0828385E083830C9A0D9AE4
:1014D0000895FC01A081B1812C91338181E090E0DD
:1014E000AC0101C0440F3A95EAF7242B2C93A0815C
:1014F000B1812C91328101C0880F3A95EAF780952D
:1015000082238C930895FC01A081B1814C912381A9
:1015100081E090E0BC0102C0660F771F2A95E2F7D8
:101520009B01209524232C93A081B1812C913281A1
:1015300001C0880F3A95EAF7809582238C9308952D
:101540000F931F93CF93DF93D82FC92F09EE13E08A
:101550008D2F9C2F0E94690A81E893E20197F1F791
:1015600000C000008D2F9C2F0E94830A81E893E227
:101570000197F1F700C000000150110949F7DF9110
:10158000CF911F910F9108951F93CF93DF93D82F81
:10159000C92F19E78D2F9C2F0E94690A87E794E0D5
:1015A0000197F1F700C000008D2F9C2F0E94830A45
:1015B0008FE694E00197F1F700C00000115051F759
:1015C000DF91CF911F910895FC0186E0828387E02F
:1015D000838385E0848384E085838AB1806F8AB9C0
:1015E0001092B2008FEF8093B3008093B40081EF2C
:1015F0008093B00082E08093B1000895EF920F9342
:10160000FC01DB01428323830483E5823C9161E09A
:1016100070E0CB0101C0880F0A95EAF7FB0101C019
:10162000EE0FEA94EAF78E2BFB0101C0EE0F2A952C
:10163000EAF78E2B01C0660F4A95EAF7862B832BBB
:101640008C931092B2008FEF8093B3008093B4001C
:1016500081EF8093B00082E08093B1000F91EF9012
:101660000895FC01611119C02BB1348181E090E033
:1016700001C0880F3A95EAF7809582238BB9411112
:1016800018C02BB1358181E090E001C0880F3A95F8
:10169000EAF7809582238BB90895613081F78BB189
:1016A000948121E030E001C0220F9A95EAF7822B65
:1016B000E5CF413089F78BB1958121E030E001C061
:1016C000220F9A95EAF7822BE6CF24E6822F861B1B
:1016D0003FEF839FC0011124E4E6F0E0BF010E94C8
:1016E000D5116093B300241B239FC0011124BF01B7
:1016F0000E94D5116093B4000895DC0186E3E2E016
:10170000F1E001900D928A95E1F70895CF92DF9272
:10171000EF92FF920F931F93CF93DF93FB01CA01C8
:10172000D90198018701A6016630710589F4BC01D1
:101730006A5071096330710508F064C082E0DF917E
:10174000CF911F910F91FF90EF90DF90CF90089570
:101750006730710549F48930910541F18D3091056B
:1017600009F02DC289E1EBCF6830710549F488306A
:10177000910521F08E30910509F021C286E0DFCF7E
:101780006930710549F48830910521F08E3091055A
:1017900009F015C28AE1D3CF6A30710549F4883067
:1017A000910501F38E30910509F009C288E1C7CF98
:1017B0006B30710509F4BBCF6330710549F4843097
:1017C000910509F4A4C18E31910579F489E0B7CF70
:1017D0006431710509F0A9C18430910509F499C1FA
:1017E0008E319105E9F48AE0AACF9C012550310998
:1017F0002931310508F48FC18D32910509F00FC1EF
:101800008DE09DCF8430910509F0DDC1E431F10513
:101810000CF0D0C18CE093CFE431F10509F089C11F
:101820009C01255031092931310508F474C1E801C2
:10183000488122E630E0B901641B71096817790715
:1018400079F04981E901C41BD109C817D90741F0D2
:10185000E8014A81241B31092817390709F005C11D
:1018600086E16DCFE630F10501F5E90148814630AA
:1018700040F04C9150E0435D5F4F4817590709F421
:1018800079C1E9014981463050F011964C91119788
:1018900050E0435D5F4F4817590709F46BC1E901F8
:1018A0002A81263008F05CC1BFC1E730F10501F59F
:1018B000E9014881483040F04C9150E0435D5F4F72
:1018C0004817590709F456C1E9014981483050F0D9
:1018D00011964C91119750E0435D5F4F481759079F
:1018E00009F448C1E9012A81283008F039C19CC1B6
:1018F000E830F105E9F2E431F10509F498CFE3317C
:10190000F105C9F4E801488122E630E0B901641B21
:1019100071096817790709F42DC14981241B310920
:101920002817390709F426C1E8014A8122E630E088
:10193000241B31091BC1E231F10509F5EA012881B7
:10194000243050F0E801688122E630E0261B31099E
:101950002817390709F40EC1EA012981243050F013
:10196000E801698122E630E0261B31092817390792
:1019700009F400C1EA012A812430B0F655C1E131F1
:10198000F10511F5EA012881263050F0E80168815F
:1019900022E630E0261B31092817390709F4EAC08E
:1019A000EA012981263050F0E801698122E630E021
:1019B000261B31092817390709F4DCC0EA012A81FE
:1019C000263008F0B1CF30C1E031F10511F5EA0160
:1019D0002881283050F0E801688122E630E0261B9B
:1019E00031092817390709F4C5C0EA0129812830CF
:1019F00050F0E801698122E630E0261B3109281702
:101A0000390709F4B7C0EA012A81283008F08CCFE1
:101A10000BC1EF30F105D9F2E330F10519F52C9146
:101A20008E329105A4F1422F50E0435D5F4F48177D
:101A3000590741F1823691050CF0B7C011962C91EF
:101A4000119730E0235D3F4F2817390731F1129687
:101A50002C91129730E0235D3F4F28173907E9F0AA
:101A60008EE06DCEE430F1055CF18D32910509F028
:101A7000DFC0E431F1050CF47DC0E431F10531F54E
:101A800081E15DCE8236910511F48FE058CE30E0D1
:101A9000235D3F4F2817390789F011962C91119734
:101AA00030E0235D3F4F2817390741F012962C9103
:101AB00030E0235D3F4F2817390799F585E13FCE88
:101AC0001E161F0654F4853691053CF418161906A7
:101AD00024F4EA31F1050CF466C09F01215031096C
:101AE0002931310508F44ACEEF2B41F40097A9F0D3
:101AF000853691050CF422CE83E021CE8536910502
:101B000074F4181619060CF419CE84E018CE87E088
:101B100016CE8BE014CE88E012CE81E010CE85E0A8
:101B20000ECE8536910594F229CE643071050CF005
:101B300069CEE430F10509F054C02C9130E0235D0A
:101B40003F4F2817390719F4823691059CF01196FA
:101B50002C91119730E0235D3F4F2817390751F042
:101B600012962C91129730E0235D3F4F28173907CA
:101B700009F07BCF82E1E3CDE431F10509F0A3CF99
:101B80008E3291050CF4A2CF2C9130E0235D3F4FB3
:101B90002817390721F0823691050CF461CF85367C
:101BA00091050CF09ACF83E1CACD8236910509F0F8
:101BB00074CF6BCFE431F10509F439CE12C0843013
:101BC000910509F427CE8E31910509F025CEE43137
:101BD000F10584F7BF01695071096430710508F09F
:101BE00019CEE530F10509F03DCEE90148814430D8
:101BF00040F04C9150E0435D5F4F4817590709F49E
:101C0000B9CFE9014981443050F011964C911197B8
:101C100050E0435D5F4F4817590709F4ABCFE90126
:101C20002A81243008F09CCF8D32910509F4A2CF8F
:101C30008236910509F0A0CFE431F1050CF49ACF7A
:101C4000E431F10509F045CF80E179CDEF92FF92C3
:101C50000F931F93CF93DF93CDB7DEB76E970FB679
:101C6000F894DEBF0FBECDBF0E94300A8BE1ECE9D5
:101C7000F1E0DE01119601900D928A95E1F77E0167
:101C80008DE1E80EF11CC7010E945D0F2BE1AE0152
:101C90004F5F5F4F70E060E0C7010E94DD1010E011
:101CA00000E0AE01445E5F4FB801C7010E946E0FB5
:101CB0006C8DCE014E960E94F2090F5F1F4F0B31C3
:101CC000110579F7C7010E94530F6E960FB6F8946D
:101CD000DEBF0FBECDBFDF91CF911F910F91FF905F
:101CE000EF9008952F923F924F925F926F927F9262
:101CF0008F929F92AF92BF92CF92DF92EF92FF921C
:101D00000F931F93CF93DF9300D000D000D00F929A
:101D1000CDB7DEB74C016A837B834C835D832E8312
:101D20003F83302E212EBE2C0E94300A512C412C94
:101D3000712C612CAB2CC32CD22CEE80FF800C813B
:101D40001D812A813B81A301B201C4010E94860B3F
:101D5000E82FF0E0EE0FFF1FE80DF91D60817181A3
:101D6000CE0101960E94090A8FEF681A780AE6E60A
:101D70006E167104F9F6F40166A577A5CE010196F9
:101D80000E94090AFFEF4F1A5F0A8BE148165104BF
:101D900079F6BB2019F0C4010E94260E27960FB6D3
:101DA000F894DEBF0FBECDBFDF91CF911F910F9191
:101DB000FF90EF90DF90CF90BF90AF909F908F906B
:101DC0007F906F905F904F903F902F900895049672
:101DD0000C94C4048F929F92AF92BF92CF92DF92E5
:101DE000EF92FF920F931F93CF93DF93EC018B0140
:101DF0005B0183E0A80EB11C88248394912CF80128
:101E0000C1908F01D12CCE010E9414118FEB92E171
:101E10000197F1F700C00000CE010E941611EFEA11
:101E2000F4E03197F1F700C00000F12CE12CC4017F
:101E30000E2C02C0880F991F0A94E2F78C219D2175
:101E4000892B49F1CE010E9414118FE599E0019789
:101E5000F1F700C00000CE010E941611EFEAF4E095
:101E60003197F1F700C00000FFEFEF1AFF0A80E1A1
:101E7000E816F104E1F60A151B0509F6DF91CF918A
:101E80001F910F91FF90EF90DF90CF90BF90AF9098
:101E90009F908F900895CE010E9414118FEA94E0D4
:101EA0000197F1F7D6CF089580EA8093010110924F
:101EB000B90080E28093B8000895FC0180E8808337
:101EC000CF010C94540F982F9370891305C0880F7D
:101ED000806A8093010108958FEF0895FA0194EAD2
:101EE00024E89093BC008091BC0087FFFCCF8091D8
:101EF00001018093BB002093BC008091BC0087FF50
:101F0000FCCF8091B900883161F784EA8093BC00EE
:101F10008091BC0087FFFCCF809101018093BB00C2
:101F200084E88093BC008091BC0087FFFCCF709355
:101F3000BB0084E88093BC008091BC0087FFFCCF8D
:101F40006093BB0084E88093BC008091BC0087FF55
:101F5000FCCF8091BC0087FFFCCF84EA8093BC005B
:101F60008091BC0087FFFCCF809101018F5F80933F
:101F7000BB0084E88093BC008091BC0087FFFCCF4D
:101F800084E88093BC008091BC0087FFFCCF8091E7
:101F9000BB00808384E98093BC0080E0089594EACC
:101FA00034E89093BC008091BC0087FFFCCF809107
:101FB00001018093BB003093BC008091BC0087FF7F
:101FC000FCCF8091B900883161F784EA8093BC002E
:101FD0008091BC0087FFFCCF809101018093BB0002
:101FE00084E88093BC008091BC0087FFFCCF709395
:101FF000BB0084E88093BC008091BC0087FFFCCFCD
:102000006093BB0084E88093BC008091BC0087FF94
:10201000FCCF84EA8093BC008091BC0087FFFCCF9A
:10202000809101018F5F8093BB0084E88093BC00A6
:102030008091BC0087FFFCCF84EC211105C084E9AE
:102040008093BC0080E00895213009F484E88093F7
:10205000BC009091BC0097FFFCCFFA019091BB00AF
:1020600091932150AF01E9CF94EA24E89093BC000A
:102070008091BC0087FFFCCF809101018093BB0061
:102080002093BC008091BC0087FFFCCF8091B900F9
:10209000883161F784EA8093BC008091BC0087FF9F
:1020A000FCCF809101018093BB0084E88093BC0049
:1020B0008091BC0087FFFCCF7093BB0084E88093C5
:1020C000BC008091BC0087FFFCCF6093BB0084E81C
:1020D0008093BC008091BC0087FFFCCF4093BB0085
:1020E00084E88093BC008091BC0087FFFCCF84E92A
:1020F0008093BC0080E00895FB01260F372F311D2F
:10210000DC018C918150990B862B9F2B2817390766
:1021100018F09C012F5F3F4F822F8E1B24EA34E87A
:102120002093BC009091BC0097FFFCCF90910101DF
:102130009093BB003093BC009091BC0097FFFCCF04
:102140009091B900983161F794EA9093BC00909116
:10215000BC0097FFFCCF909101019093BB0094E8E5
:102160009093BC009091BC0097FFFCCFF093BB0014
:1021700094E89093BC009091BC0097FFFCCFE09353
:10218000BB0094E89093BC009091BC0097FFFCCFFB
:10219000982F24E8911104C094E99093BC0008950D
:1021A000FA0131913093BB002093BC003091BC0008
:1021B00037FFFCCF9150AF01EDCFDF92EF92FF924E
:1021C0000F931F93CF93DF93D82ED92F7B018A01D2
:1021D000C22F2C2FA801B7018D2D9D2F0E947C109E
:1021E000282F30E0E20EF31EC81B020F131FC1118F
:1021F000F0CF80E0DF91CF911F910F91FF90EF9092
:10220000DF900895239A2B9A14BC88E687BD82E458
:1022100084BD81E085BD10928200089524980895C0
:1022200083B18295817008950C94021184B58D7FDD
:1022300084BD84B58F7B84BD85B58E7F85BD17BC7D
:102240002B980895CF93DF93D82FC92F0E940211A6
:102250008FEB92E10197F1F700C000008D2F9C2FCA
:102260000E9416118FEA94E00197F1F700C0000078
:10227000DF91CF910895D82FC92F7B010E942211A1
:1022800016E0CC24C394D12CC601012E02C0880FC5
:10229000991F0A94E2F78E219F21892BB1F08D2F8F
:1022A0009C2F0E9402118FE599E00197F1F700C081
:1022B00000008D2F9C2F0E9416118FEA94E0019749
:1022C000F1F700C000001150DFCF8D2F9C2F0E942E
:1022D00002118FEA94E00197F1F7E9CFF8941AB868
:1022E000E9E6F0E0808184608083E99A789408953B
:1022F0001092850010928400E1E8F0E08081816016
:1023000080830895FC01A1E8B0E08C91887F8C93D4
:102310008091840090918500918380830895FC01D1
:10232000808191810895CDB7DEB7C059D1090FB62C
:10233000F894DEBF0FBECDBF8E010F5F1F4FC801E7
:102340000E94C806CE0189579F4F0E94E40AC957D0
:10235000DF4F4881C758D040C857DF4F5881C85811
:10236000D040C757DF4F6881C958D040C657DF4FAC
:102370007881CA58D040C557DF4F8881CB58D040AC
:10238000C457DF4F9881CC58D0400E94E205CE015F
:1023900087589F4F0E945D0ACE0183579F4F0E942E
:1023A000C404C8010E948109FCCF97FB072E16F4D4
:1023B000009407D077FD09D00E94E91107FC05D0F1
:1023C0003EF4909581959F4F0895709561957F4F4C
:1023D0000895AA1BBB1B51E107C0AA1FBB1FA6176C
:1023E000B70710F0A61BB70B881F991F5A95A9F7BE
:0E23F00080959095BC01CD010895F894FFCF23
:1023FE0001A038013A013E01420146014A014E0157
:10240E00520156015A015E01620166016A016E01B6
:10241E00720176017A017E013801820186018A01FC
:10242E008E019001940198012000E2948C00E294B8
:10243E008000E2949000E2949400E2949800E2947A
:10244E008200E2948F00E2948100E2949300E29481
:10245E009B00E2949700E2948300E2959400E2954B
:10246E009000E2959700E2959D00E2959A00E29524
:10247E009100E295A300E295A600E295A9000A005C
:10248E00E295B100E295B200E296A90050726F6437
:10249E00756974207061723A204D6F757371756530
:0824AE0074616972657300009E
:00000001FF
