:100000000C943F000C9476000C94790B0C946700D0
:100010000C9467000C9467000C9467000C946700C4
:100020000C9467000C9467000C9467000C946700B4
:100030000C9467000C941F110C9467000C946700DB
:100040000C9467000C9467000C9467000C94670094
:100050000C9467000C9467000C9467000C94670084
:100060000C9467000C9467000C9467000C94670074
:100070000C9467000C9467000C94670044111124E1
:100080001FBECFEFD8E0DEBFCDBF11E0A0E0B1E0F2
:10009000EEEFF2E202C005900D92A83BB107D9F74E
:1000A00023E0A8EBB1E001C01D92A136B207E1F751
:1000B00010E0CFE3D0E004C02197FE010E94771149
:1000C000CE33D107C9F70E9431110C947D110C94E5
:1000D0000000F8945298E89AE9E6F0E080818260A6
:1000E0008083808181608083789408951F920F922D
:1000F0000FB60F9211242F933F934F935F936F93FB
:100100007F938F939F93AF93BF93EF93FF93CF937F
:10011000DF9300D000D0CDB7DEB78FE59AEE019720
:10012000F1F700C00000CE0101960E949D0CCE01A7
:1001300001960E94E00C809100018823E1F010926A
:10014000000181E08093BA010F900F900F900F9003
:10015000DF91CF91FF91EF91BF91AF919F918F91DF
:100160007F916F915F914F913F912F910F900FBEB3
:100170000F901F9018958091B901882329F3109250
:10018000B90181E08093B801DFCF0F931F93CF9324
:10019000DF9300D000D0CDB7DEB78C010E94F00213
:1001A000F80112A611A6C8018B960E949D0CC801E9
:1001B0008F960E946902F801ED5BFF4F1082319625
:1001C0001082C8018B5B9F4F0E940E07F801E55813
:1001D000FF4F81E080830E94450BCE0101960E9473
:1001E0002602CE0101960E94C6010F900F900F903B
:1001F0000F90DF91CF911F910F910895EF920F9380
:100200001F93F894DC01A558BF4F8C01005C1F4F71
:100210009C01235C3F4FAC01465C5F4FBC01695CB5
:100220007F4FEC908B5B9F4F0E94A80A78941F91A0
:100230000F91EF900895EF92FF920F931F93CF933A
:10024000DF93EC010E94690081E08093000110922D
:10025000BA018E01055D1F4F80910001811130C0F0
:100260008091BA01882329F103E010E07E012FE29A
:10027000E20EF11CC7010E94D0028FE798E321E053
:10028000815090402040E1F700C00000C7010E946B
:100290008F028FE798E321E0815090402040E1F702
:1002A00000C000000150110929F781E090E09AA7F1
:1002B00089A7DF91CF911F910F91FF90EF90089543
:1002C000C8010E94C60CC8CFCF93DF93EC0189A56B
:1002D0009AA582309105D9F13CF40097C1F00197BD
:1002E00009F1DF91CF9108950397D9F7CE010E94CC
:1002F000FE001092B80181E08093B901FE01ED5B30
:10030000FF4F10823196108282E090E02CC0FE01F7
:10031000ED5BFF4F108231961082CE01DF91CF91BD
:100320000C941B01CE018B960E94130DCE01C79633
:100330000E94C00BFE01ED5BFF4F8081882321F3FB
:10034000CE018F960E94AC021AA619A6CACFCE0182
:100350008B960E94E00C78948091B801882309F470
:10036000C0CF83E090E09AA789A7BBCFFC0172A71A
:1003700061A70895239A2B9A14BC88E687BD82E46E
:1003800084BD81E085BD109282000895249808956F
:1003900083B18295817008950C94BA0184B58D7FE4
:1003A00084BD84B58F7B84BD85B58E7F85BD17BC2C
:1003B0002B980895CF93DF93D82FC92F0E94BA01AD
:1003C0008FEB92E10197F1F700C000008D2F9C2F79
:1003D0000E94CE018FEA94E00197F1F700C000007F
:1003E000DF91CF910895D82FC92F7B010E94DA01A8
:1003F00016E0CC24C394D12CC601012E02C0880F74
:10040000991F0A94E2F78E219F21892BB1F08D2F3D
:100410009C2F0E94BA018FE599E00197F1F700C087
:1004200000008D2F9C2F0E94CE018FEA94E001974F
:10043000F1F700C000001150DFCF8D2F9C2F0E94DC
:10044000BA018FEA94E00197F1F7E9CFF8941AB86E
:10045000E9E6F0E0808184608083E99A78940895E9
:100460001092850010928400E1E8F0E080818160C4
:1004700080830895FC01A1E8B0E08C91887F8C9383
:100480008091840090918500918380830895FC0180
:100490008081918108950F93DC01FA0111967C937C
:1004A0006E9312962C93129713960C93308181E0E1
:1004B00090E0AC0101C0440F0A95EAF7342B308379
:1004C000308101C0880F2A95EAF7832B80830F9132
:1004D0000895FC0182E290E09183808384E082832E
:1004E00085E083830C9A0D9A0895FC01A081B18167
:1004F0002C91338181E090E0AC0101C0440F3A952A
:10050000EAF7242B2C93A081B1812C91328101C078
:10051000880F3A95EAF7809582238C930895FC0121
:10052000A081B1814C91238181E090E0BC0102C0A7
:10053000660F771F2A95E2F79B01209524232C93C1
:10054000A081B1812C91328101C0880F3A95EAF7E0
:10055000809582238C9308950F931F93CF93DF93FD
:10056000D82FC92F09EE13E08D2F9C2F0E94750202
:1005700081E893E20197F1F700C000008D2F9C2FD6
:100580000E948F0281E893E20197F1F700C000001A
:100590000150110949F7DF91CF911F910F910895F3
:1005A0001F93CF93DF93D82FC92F19E78D2F9C2F3F
:1005B0000E94750287E794E00197F1F700C0000000
:1005C0008D2F9C2F0E948F028FE694E00197F1F708
:1005D00000C00000115051F7DF91CF911F91089595
:1005E000CF93DF93EC010E942B0D19821A821B829C
:1005F0001C821D821E821F82188619861A861B86FF
:100600001C861D861E861F86188A198A81E08A8BA1
:100610001B8A1C8A88E38D8B82E38E8BCE014796E2
:100620000E944F104F89588D698D7A8D8B8D9C8DCE
:100630000E946A0F2D8F3E8F4F8F58A369A37AA314
:10064000CE0183960E949D0CCE0187960E94E810F1
:1006500018A6DF91CF910895CF93DF93EC016D96AB
:1006600044E664E6CE010E94A60F2FEF80E792E0F9
:10067000215080409040E1F700C00000CE01DF91A2
:10068000CF910C94FE0F0F931F93CF93DF93EC0148
:100690008981843008F446C08E01035E1F4FC80173
:1006A0000E94FE0F2FEF89E698E121508040904094
:1006B000E1F700C00000CE010E942C034E896D8935
:1006C000C8010E94A60F2FEF89E698E121508040D3
:1006D0009040E1F700C00000CE010E942C03CE0143
:1006E0000E94470D811123C0CE010E942C03CE0130
:1006F0000E94340D882309F1CE010E942C03CE0103
:100700000E94470D811121C0C8010E94FE0F2FEFEA
:1007100084E39CE0215080409040E1F700C000005D
:1007200081E08B8BDF91CF911F910F9108954E89BE
:1007300060E0C8010E94A60FD2CF4E8943506D8958
:100740006350C8010E94E80FD2CF4E896D89C8015D
:100750000E94A60FD4CF0F931F93CF93DF93EC018A
:100760008C01035E1F4FCE010E943E0D882361F075
:10077000CE010E94560D811107C06D896B5F40E06C
:10078000C8010E94A60FEFCFDF91CF911F910F916B
:1007900008950F931F93CF93DF93EC018C01035EB9
:1007A0001F4FCE010E94390D882361F0CE010E94B7
:1007B0002F0D811107C04E894B5F60E0C8010E9478
:1007C000A60FEFCFDF91CF911F910F9108950F9357
:1007D0001F93CF93DF93EC018C01035E1F4F40E02A
:1007E00064E6C8010E94A60F2FE788E391E021503C
:1007F00080409040E1F700C00000CE010E94430D10
:100800008823E1F0C8010E94FE0F2FEF84E39CE0F3
:10081000215080409040E1F700C0000044E664E6CB
:10082000C8010E94A60F8FE59AEE0197F1F700C06C
:100830000000DF91CF911F910F9108956D896E5F38
:1008400040E0C8010E94A60FD8CF0F931F93CF930B
:10085000DF93EC010E942C038E01035E1F4FCE013B
:100860000E94470D811126C044E664E6C8010E943B
:10087000D20F2FE788E391E0215080409040E1F7CC
:1008800000C00000CE010E94340D8823C9F0C801C9
:100890000E94FE0F2FEF84E39CE0215080409040A7
:1008A000E1F700C00000CE01DF91CF911F910F91C1
:1008B0000C942C0340E06D89C8010E94A60FCFCF95
:1008C0004E896D89C8010E94D20FDCCFEF92FF9252
:1008D0000F931F93CF93DF93EC017C0127E2E20E8D
:1008E000F11CC7010E94E910CE010E942C038E0169
:1008F000035E1F4FCE010E94470D811199C0C701B1
:100900000E941411C8010E94FE0FC7010E941A1113
:100910009C019A892B30310508F099C0992309F47C
:100920008FC08C81FE01E80FF11D86E081878FEF7B
:1009300099E628E1815090402040E1F700C0000096
:10094000CE010E942C034E896D89C8010E94A60F1A
:100950008FEF9EE924E2815090402040E1F700C0F3
:100960000000C8010E94FE0F8FEF99E628E1815038
:1009700090402040E1F700C0000044E664E6C80172
:100980000E94E80F8FE798E321E0815090402040DB
:10099000E1F700C00000CE010E942F0D882309F46A
:1009A00064C0C8010E94FE0F8FEF99E628E18150D4
:1009B00090402040E1F700C00000CE010E942C03CF
:1009C000CE010E94630D882309F455C0C8010E941E
:1009D000FE0F8FEF99E628E1815090402040E1F72B
:1009E00000C00000CE010E942C034E896D89C80111
:1009F0000E94A60F8FEF9EE924E281509040204094
:100A0000E1F700C00000C8010E94FE0F8FEF99E6D9
:100A100028E1815090402040E1F700C00000CE0165
:100A2000DF91CF911F910F91FF90EF900C94E7030E
:100A30004E894A5F6D896A5FC8010E94A60F5ACF2E
:100A40008D81FE01E80FF11D86E0878770CF992325
:100A500031F08C81FE01E80FF11D88E067CF8D81B8
:100A6000FE01E80FF11D88E0F0CF4E896D89C801C5
:100A70000E94E80F90CF4E894C5F6D89C8010E949B
:100A8000A60F9ECFEF92FF920F931F93CF93DF930A
:100A9000EC010E942C038E01035E1F4FCE010E94C9
:100AA000470D811140C07E0127E2E20EF11CC70113
:100AB0000E94E91044E664E6C8010E94D20F8FE765
:100AC00098E321E0815090402040E1F700C0000011
:100AD000CE010E942F0D882369F1C7010E941411D5
:100AE000C8010E94FE0F8FEF99E628E181509040E7
:100AF0002040E1F700C00000C7010E941A11499789
:100B000038F1CE010E9425048A898823D9F08C818E
:100B1000C80FD11D84E08987DF91CF911F910F917C
:100B2000FF90EF9008956D896B5F40E0C8010E94CF
:100B3000A60FB4CF4E8943506D896750C8010E94FB
:100B4000D20FC6CF8D81C80FD11D84E08F87E4CF2F
:100B5000CE01DF91CF911F910F91FF90EF900C94F8
:100B600066040F931F93CF93DF93EC012FEF84E381
:100B70009CE0215080409040E1F700C00000CE0191
:100B80000E942C038E01035E1F4F4E896D89C801A0
:100B90000E94A60F2FEF89E698E1215080409040F7
:100BA000E1F700C00000CE010E94470D882311F03C
:100BB00081E088A744E664E6C8010E94D20F8FE373
:100BC0009CE90197F1F700C000004E8945506D89FE
:100BD0006550C8010E94D20F9FEF23EC89E091502D
:100BE00020408040E1F700C00000CE010E94470D88
:100BF000882311F081E088A744E664E6C8010E94DA
:100C0000E80F9FEB24ED81E0915020408040E1F718
:100C100000C000004E89465F6D89665FC8010E9472
:100C2000E80F9FEF24E38CE0915020408040E1F7F3
:100C300000C00000CE010E94470D882311F081E022
:100C400088A74E896D89C8010E94E80F9FE728E3B5
:100C500081E0915020408040E1F700C00000CE01CB
:100C60000E94470D882311F081E088A744E664E6DE
:100C7000C8010E94D20F9FEB24ED81E091502040EB
:100C80008040E1F700C000004E896D89C8010E94D4
:100C9000D20F9FEF23EC89E0915020408040E1F794
:100CA00000C00000CE010E94470D882311F081E0B2
:100CB00088A744E664E6C8010E94BC0F9FE728E3CA
:100CC00081E0915020408040E1F700C000004E8953
:100CD0006D89C8010E94BC0F9FEF23EC89E0915001
:100CE00020408040E1F700C00000C8010E94FE0FD4
:100CF0009FEF29E688E1915020408040E1F700C055
:100D00000000CE010E94470D81110DC088A5811100
:100D10000AC0CE010E94E70389818F5F89838330F7
:100D2000F1F41A8A0DC018A6CE010E9442058A89E4
:100D3000882371F08A818F5F8A838C818F5F8C8397
:100D4000CE018796DF91CF911F910F910C94E910FE
:100D50008B818F5F8B838D818F5F8D83F1CF81300E
:100D600079F3DF91CF911F910F9108950F931F9306
:100D7000CF93DF93EC010E94700D8230910509F44E
:100D800046C084F40097B9F00197D1F14E89485FCD
:100D90006D89685FCE014D96DF91CF911F910F91C4
:100DA0000C94A60F039791F7CE01DF91CF911F917D
:100DB0000F910C94C9038E01095D1F4FC8010E9459
:100DC0001411CE014D960E94FE0F8A89882379F076
:100DD000C8010E941A119A81FE01E90FF11D868354
:100DE000CE01DF91CF911F910F910C94B105C801F5
:100DF0000E941A119B81FE01E90FF11D8487F0CF3B
:100E0000CE01DF91CF911F910F910C944303CE013E
:100E1000DF91CF911F910F910C94AB03DC0186E31E
:100E2000E2E0F1E001900D928A95E1F708958F924A
:100E30009F92AF92CF92DF92EF92FF920F931F9308
:100E4000CF93DF93FB01CA0149019801A701E60195
:100E50006B30710569F48D32910509F486C2BC01CD
:100E6000665271096730710508F095C28EE06BC259
:100E70006431710531F48A339105C1F3AA20B1F1CF
:100E800045C0AA2099F16930710549F4BC016F5041
:100E900071096430710508F074C282E054C26A308E
:100EA000710549F48F309105E1F08231910509F027
:100EB000C2C289E148C26C30710549F48E30910597
:100EC00021F08331910509F0B6C28AE13CC26D3050
:100ED000710549F48E30910561F38331910509F074
:100EE000AAC288E130C26E30710581F2E330F105AB
:100EF00049F48430910509F43AC28E31910579F4B0
:100F000089E021C2E431F10509F037C2843091054E
:100F100009F42FC28E31910589F48AE014C2AC0124
:100F2000455051094931510580F08D32910509F044
:100F30007BC18DE008C2E431F10579F48E31910571
:100F400034F4853091050CF4AEC088E0FCC18236E3
:100F5000910509F0A8C080E1F6C1E430F10509F07F
:100F60007CC28236910524F5D4014C9150E0435D5A
:100F70005F4F4817590709F4E3C011964C9150E0B0
:100F8000435D5F4F4817590721F4E9014981411139
:100F9000D7C0D40112964C9150E0435D5F4FE901F8
:100FA0004817590709F4C8C08D32910509F4C8C023
:100FB0008236910509F0FAC1E431F1050CF4C0C0A4
:100FC000E431F10509F4FAC17FC1E630F10511F50C
:100FD000D9014C91463048F0E401488150E0435D2E
:100FE0005F4F4817590709F4ABC0D90111964C91CE
:100FF000463048F0E401498150E0435D5F4F4817B7
:10100000590709F49DC0D90112962C91263008F099
:1010100049C2CACFE730F10509F5E90148814830F6
:1010200048F0D4014C9150E0435D5F4F4817590799
:1010300009F486C0E9014981483050F0D401119685
:101040004C9150E0435D5F4F4817590709F478C051
:10105000E9012A81283008F025C2A6CFE830F10541
:10106000F9F4D9014C91483048F0E401488150E04E
:10107000435D5F4F4817590709F462C0D9011196C3
:101080004C91483048F0E401498150E0435D5F4FA6
:101090004817590709F454C0D90112962C91DACF98
:1010A000E431F10531F5DA016C9122E630E0D90145
:1010B000A61BB109A817B907D1F0DA0111966C91F6
:1010C000261B31092817390719F4698161110FC0EE
:1010D000DA0112966C9142E650E0461B510948171E
:1010E000590709F079C16A81662309F491C186E143
:1010F0002AC1E331F10531F5DA016C9122E630E0E5
:10110000D901A61BB109A817B907D1F0DA011196C8
:101110006C91261B31092817390719F429812111EF
:101120000FC0DA0112964C9122E630E0241B3109FF
:101130002817390709F038CF2A81222309F434CF40
:1011400082E101C1E231F10521F52881243048F026
:10115000DA016C9122E630E0261B310928173907A5
:1011600079F32981243050F0DA0111966C9122E64E
:1011700030E0261B31092817390711F32A81243062
:1011800008F412CFEA014A8122E630E0241B31093B
:101190008EC1E131F105F1F42881263048F0DA0101
:1011A0006C9122E630E0261B31092817390741F2FD
:1011B0002981263058F0DA0111966C9122E630E050
:1011C000261B31092817390709F4BACF2A8126309E
:1011D000C8F6EACEE031F10501F52881283050F05B
:1011E000DA016C9122E630E0261B31092817390715
:1011F00009F4A6CF2981283058F0DA0111966C91B4
:1012000022E630E0261B31092817390709F498CF68
:101210002A81283008F0B6CFC7CEEF30F105E9F2C9
:10122000E330F10509F04CC0E40148818E329105AC
:101230000CF45DC0642F70E0635D7F4F6817790721
:1012400009F450C0823691050CF0EBC0498150E0A2
:10125000435D5F4F4817590741F04A8150E0435DB5
:101260005F4F4817590709F001CEE4014A8150E069
:10127000435D5F4F4817590729F4D90112966C91C5
:1012800061113CC0E401698170E0635D7F4F6817C4
:10129000790709F0C1C0E901A981A1112FC0481740
:1012A000590749F4D90112964C91442309F4DECD33
:1012B0006817790749F4E9012981211105C0D6CDC4
:1012C000E430F1050CF096C09F0121503109233123
:1012D0003105B0F485369105B4F418161906BCF43E
:1012E00083E131C08236910511F48FE02CC050E0CB
:1012F000435D5F4F4817590709F0B7CF85E123C019
:1013000029313105A0F48536910509F44DC00097C7
:1013100009F44AC07A9721F78536910504F5181625
:1013200019060CF4BACD892BD9F684E00CC030979D
:1013300089F7009701F1853691050CF4AECD85361D
:10134000910571F683E0DF91CF911F910F91FF908E
:10135000EF90DF90CF90AF909F908F90089585365B
:10136000910509F0BDCF85E0EECF84E1ECCF87E0B9
:10137000EACF8BE0E8CF81E0E6CFE430F1050CF472
:10138000ECCD8430910509F05AC0E431F1050CF040
:101390004DC08CE0D8CFAA20A1F38331910521F074
:1013A0008E30910509F047C086E0CDCFE431F105DC
:1013B00009F08ACF8E3291050CF486CFD4012C919E
:1013C00030E0235D3F4F2817390709F47DCF82367F
:1013D00091050CF079CF4ACD2817390759F42981A6
:1013E000222309F443CD4817590721F42A812223E7
:1013F00009F43CCD8D32910509F0DACDE431F105E7
:101400000CF49ECEE431F10509F05ECF81E19BCF73
:101410002817390759F7E3CF4817590709F054CF70
:1014200041CF8236910509F020CF5FCFE431F1053D
:1014300009F439CE12C08430910509F4AACF8E3157
:10144000910509F078CDE431F10584F7BF016950C9
:1014500071096430710508F09CCFE530F10509F0A1
:10146000B4CDD9014C91443048F0E401488150E0BA
:10147000435D5F4F4817590709F462CED9011196B1
:101480004C91443048F0E401498150E0435D5F4FA6
:101490004817590709F454CED90112962C912430DB
:1014A00008F482CDE4012A8130E0235D3F4F281704
:1014B000390709F09FCF44CEEF92FF920F931F930D
:1014C000CF93DF93CDB7DEB76E970FB6F894DEBF3C
:1014D0000FBECDBF0E9440108BE1ECE9F1E0DE01D0
:1014E000119601900D928A95E1F77E018DE1E80E4B
:1014F000F11CC7010E94A70D2BE1AE014F5F5F4FAA
:1015000070E060E0C7010E94270F10E000E0AE012C
:10151000445E5F4FB801C7010E94B80D6C8DCE01CB
:101520004E960E9402100F5F1F4F0B31110579F785
:10153000C7010E949D0D6E960FB6F894DEBF0FBED8
:10154000CDBFDF91CF911F910F91FF90EF90089544
:101550002F923F924F925F926F927F928F929F92C3
:10156000AF92BF92CF92DF92EF92FF920F931F93B1
:10157000CF93DF93CDB7DEB72B970FB6F894DEBFCE
:101580000FBECDBF4C016E837F83488759872A8762
:101590003B87302E212EBE2C0E944010512C412C16
:1015A000712C612CCE0101960E949D0CCE010196FA
:1015B0000E94E00C2FE788E391E0215080409040AA
:1015C000E1F700C00000CE0101960E94130DEFE785
:1015D000F8E321E0E150F0402040E1F700C00000D6
:1015E000AB2CC32CD22CEA84FB84088519852E8170
:1015F0003F81A301B201C4010E941707E82FF0E068
:10160000EE0FFF1FE80DF91D60817181CE01059677
:101610000E9419108FEF681A780A96E6691671040D
:1016200009F6F40166A577A5CE0105960E9419106A
:10163000FFEF4F1A5F0A2BE14216510409F0B0CFB9
:10164000F40166A577A5CE0105960E941910BB206E
:1016500019F0C4010E945C0A2B960FB6F894DEBF05
:101660000FBECDBFDF91CF911F910F91FF90EF90F3
:10167000DF90CF90BF90AF909F908F907F906F90B2
:101680005F904F903F902F90089510928500109298
:101690008400E1E8F0E08081816080830895109209
:1016A00085001092840008958091840090918500B7
:1016B0009093570380935603E091530381E08E0F7C
:1016C00080935303F0E08091560390915703EE0FFF
:1016D000FF1FE554FE4F918380830895282F90E0EB
:1016E00081E0961301C00895829F802D11249F5F91
:1016F000F8CF1F920F920FB60F9211242F933F93A2
:101700004F935F936F937F938F939F93AF93BF9309
:10171000EF93FF93CF93DF9300D000D0CDB7DEB728
:10172000CE0101960E949D0CCE0101960E94E00C14
:101730008091580391E08927809358038091580342
:101740008823D9F010928500109284000F900F909A
:101750000F900F90DF91CF91FF91EF91BF91AF91DB
:101760009F918F917F916F915F914F913F912F91B9
:101770000F900FBE0F901F9018950E94540BE6CF4C
:10178000CF92DF92EF920F931F93CF93DF93CDB75A
:10179000DEB7C651D1400FB6F894DEBF0FBECDBF45
:1017A0006C01CE01815F9E4F0E949D0C809153037E
:1017B0008C3CE0F3F894FE013196AF012BEC30E065
:1017C00061E0D901AA0FBB1FA554BE4F8D919C911A
:1017D000DC01A057B741A031B74208F4A5C080375B
:1017E000A7E19A0708F4A2C088569244883E904820
:1017F00008F49EC0D6011C966C9389E0DA018D93A3
:10180000AD0121503109E8F68FEF9FEF20E03081E4
:10181000DF0131963730B9F440E030E01E9160E0EE
:1018200051E071E0760F641385C0519F300D112493
:10183000472F783099F7A3E0B1E0AC0FBD1FA20F9E
:10184000B11D3C932F5F01968B3C910501F7C55F5D
:10185000DE4F88819981AA81BB81CB50D140BC01E8
:10186000CD010E945C11D6016D937D938D939C9365
:101870001397C95FDE4F88819981AA81BB81C750C8
:10188000D140BC01CD010E945C11D60114966D932C
:101890007D938D939C931797CD5FDE4F88819981BF
:1018A000AA81BB81C350D140CD5EDE4F888399832E
:1018B000AA83BB83C351D140BC01CD010E945C11FE
:1018C000D60118966D937D938D939C931B97CE01B3
:1018D00083539F4F0E940E07F6018485811111C02A
:1018E000EE24E3948601075F1F4F96012A5F3F4F66
:1018F000A6014D5F5F4FB601CE0183539F4F0E94FB
:10190000A80A81E0D6011D968C93CA5EDE4F0FB601
:10191000F894DEBF0FBECDBFDF91CF911F910F9125
:10192000EF90DF90CF90089581E068CF80E066CFA0
:1019300087E064CF550F672F74CFFC0182E290E0FF
:1019400091838083128281E08383099A089A0895A3
:101950000F93DC01FA0111967C936E9312962C93EF
:10196000129713960C93308181E090E0AC0101C096
:10197000440F0A95EAF7342B3083308101C0880F79
:101980002A95EAF7832B80830F910895FC01A081AB
:10199000B1812C91328181E090E0AC0101C0440F13
:1019A0003A95EAF7242B2C93A081B1812C913381B5
:1019B00001C0880F3A95EAF7809582238C930895A9
:1019C000FC01A081B1812C91338181E090E0AC01D8
:1019D00001C0440F3A95EAF7242B2C93A081B181E2
:1019E0002C91328101C0880F3A95EAF780958223C5
:1019F0008C930895CF93DF93D82FC92F0E94E00CCA
:101A00008FE19EE40197F1F700C000008D2F9C2F1D
:101A10000E94C60C8FE99FE00197F1F700C000001B
:101A2000DF91CF910895FC01A081B1814C91828119
:101A300021E030E0B90102C0660F771F8A95E2F716
:101A4000CB01938101C0220F9A95EAF7822B8095F2
:101A500084238C93089587B1837887B9089586B1DC
:101A600083FB882780F9089586B185FB882780F954
:101A7000089586B182FB882780F9089586B186FB98
:101A8000882780F9089586B18295817008953299EA
:101A90000BC0339909C0349907C0359905C086B188
:101AA00086FB882780F9089581E00895369B07C05A
:101AB000349907C086B183FB882780F9089580E0B8
:101AC000089581E00895329B07C0349907C086B11C
:101AD00085FB882780F9089580E0089581E00895C6
:101AE000CF93DF93D82FC92F0E94560D81111FC0AD
:101AF0008D2F9C2F0E94630D81111CC0369907C049
:101B000032990EC084E090E0DF91CF9108958D2F3F
:101B10009C2F0E94560D8111F3CF82E090E0F4CF0C
:101B20008D2F9C2F0E94630D90E00396EDCF90E0E7
:101B300080E0EACF81E090E0E7CF089580EA8093EB
:101B400001011092B90080E28093B8000895FC0171
:101B500080E88083CF010C949E0D982F9370891399
:101B600005C0880F806A8093010108958FEF089562
:101B7000FA0194EA24E89093BC008091BC0087FFAE
:101B8000FCCF809101018093BB002093BC00809129
:101B9000BC0087FFFCCF8091B900883161F784EAEF
:101BA0008093BC008091BC0087FFFCCF8091010135
:101BB0008093BB0084E88093BC008091BC0087FFC9
:101BC000FCCF7093BB0084E88093BC008091BC0084
:101BD00087FFFCCF6093BB0084E88093BC008091BA
:101BE000BC0087FFFCCF8091BC0087FFFCCF84EA5C
:101BF0008093BC008091BC0087FFFCCF80910101E5
:101C00008F5F8093BB0084E88093BC008091BC0010
:101C100087FFFCCF84E88093BC008091BC0087FFE5
:101C2000FCCF8091BB00808384E98093BC0080E07E
:101C3000089594EA34E89093BC008091BC0087FF3B
:101C4000FCCF809101018093BB003093BC00809158
:101C5000BC0087FFFCCF8091B900883161F784EA2E
:101C60008093BC008091BC0087FFFCCF8091010174
:101C70008093BB0084E88093BC008091BC0087FF08
:101C8000FCCF7093BB0084E88093BC008091BC00C3
:101C900087FFFCCF6093BB0084E88093BC008091F9
:101CA000BC0087FFFCCF84EA8093BC008091BC001D
:101CB00087FFFCCF809101018F5F8093BB0084E898
:101CC0008093BC008091BC0087FFFCCF84EC211185
:101CD00005C084E98093BC0080E00895213009F4B8
:101CE00084E88093BC009091BC0097FFFCCFFA0180
:101CF0009091BB0091932150AF01E9CF94EA24E881
:101D00009093BC008091BC0087FFFCCF80910101C3
:101D10008093BB002093BC008091BC0087FFFCCF68
:101D20008091B900883161F784EA8093BC0080918A
:101D3000BC0087FFFCCF809101018093BB0084E849
:101D40008093BC008091BC0087FFFCCF7093BB00E8
:101D500084E88093BC008091BC0087FFFCCF609337
:101D6000BB0084E88093BC008091BC0087FFFCCF5F
:101D70004093BB0084E88093BC008091BC0087FF47
:101D8000FCCF84E98093BC0080E00895FB01260F1E
:101D9000372F311DDC018C918150990B862B9F2BA5
:101DA0002817390718F09C012F5F3F4F822F8E1B99
:101DB00024EA34E82093BC009091BC0097FFFCCF4C
:101DC000909101019093BB003093BC009091BC00B6
:101DD00097FFFCCF9091B900983161F794EA909306
:101DE000BC009091BC0097FFFCCF909101019093B3
:101DF000BB0094E89093BC009091BC0097FFFCCF8F
:101E0000F093BB0094E89093BC009091BC0097FFC6
:101E1000FCCFE093BB0094E89093BC009091BC0091
:101E200097FFFCCF982F24E8911104C094E9909378
:101E3000BC000895FA0131913093BB002093BC009F
:101E40003091BC0037FFFCCF9150AF01EDCFDF9256
:101E5000EF92FF920F931F93CF93DF93D82ED92F3A
:101E60007B018A01C22F2C2FA801B7018D2D9D2F38
:101E70000E94C60E282F30E0E20EF31EC81B020F90
:101E8000131FC111F0CF80E0DF91CF911F910F910F
:101E9000FF90EF90DF900895CF93DF9300D000D0B4
:101EA00000D0CDB7DEB7DC0129833A834B835C8356
:101EB0006D837E8386E0FE01319601900D928A95B6
:101EC000E1F726960FB6F894DEBF0FBECDBFDF91C7
:101ED000CF910895CF93DF93CDB7DEB762970FB65A
:101EE000F894DEBF0FBECDBF4D875E876F87788BBE
:101EF000898B9A8B86E0FE013D96DE01119601905A
:101F00000D928A95E1F786E0FE013196DE01179683
:101F100001900D928A95E1F786E0FE013796DE0189
:101F2000119601900D928A95E1F729813A814B81B2
:101F30005C816D817E8180E090E062960FB6F894BE
:101F4000DEBF0FBECDBFDF91CF9108950F931F93DA
:101F5000CF93DF93D82FC92F162F042F40E060E0D6
:101F60000E949C10402F612F8D2F9C2FDF91CF91CD
:101F70001F910F910C94D0100F931F93CF93DF9369
:101F8000D82FC92F162F042F41E061E00E949C102A
:101F9000402F612F8D2F9C2FDF91CF911F910F919B
:101FA0000C94D0100F931F93CF93DF93D82FC92F8A
:101FB000162F042F41E060E00E949C10402F612FFB
:101FC0008D2F9C2FDF91CF911F910F910C94D010EA
:101FD0000F931F93CF93DF93D82FC92F162F042F62
:101FE00040E061E00E949C10402F612F8D2F9C2FBC
:101FF000DF91CF911F910F910C94D01040E060E0E1
:102000000C94D0108091C00085FFFCCF6093C60077
:1020100008951092C5008FEC8093C400E1ECF0E0CD
:10202000808188618083E2ECF0E08081866080833B
:102030000895EF92FF920F931F93CF93DF93F82EA3
:10204000E92EEB01DB010D900020E9F78D01015035
:102050001109C017D10739F4DF91CF911F910F916A
:10206000FF90EF90089569918F2D9E2D0E94021090
:10207000F0CF8091C00087FFFCCF8091C60008950B
:10208000CF93DF930F92CDB7DEB7CE0101960E94BA
:10209000091080E00F90DF91CF9108950895FC0121
:1020A00086E0828387E0838385E0848384E0858380
:1020B0008AB1806F8AB91092B2008FEF8093B3001B
:1020C0008093B40081EF8093B00082E08093B100F0
:1020D0000895EF920F93FC01DB0142832383048375
:1020E000E5823C9161E070E0CB0101C0880F0A9568
:1020F000EAF7FB0101C0EE0FEA94EAF78E2BFB0131
:1021000001C0EE0F2A95EAF78E2B01C0660F4A95A3
:10211000EAF7862B832B8C931092B2008FEF80937B
:10212000B3008093B40081EF8093B00082E080938D
:10213000B1000F91EF900895FC01611119C02BB10E
:10214000348181E090E001C0880F3A95EAF78095EC
:1021500082238BB9411118C02BB1358181E090E009
:1021600001C0880F3A95EAF7809582238BB90895CC
:10217000613081F78BB1948121E030E001C0220F02
:102180009A95EAF7822BE5CF413089F78BB195819B
:1021900021E030E001C0220F9A95EAF7822BE6CFCA
:1021A00024E6822F861B3FEF839FC0011124E4E6C3
:1021B000F0E0BF010E9448116093B300241B239FED
:1021C000C0011124BF010E9448116093B40008951A
:1021D0000895E1E8F0E080818860808380818460F8
:1021E0008083109285001092840085E39CE0909398
:1021F000890080938800EFE6F0E080818260808330
:102200001092600310925F03789408951092600317
:1022100010925F031092850010928400E1E8F0E0D4
:102220008081846080830895E1E8F0E08081887F88
:102230008083089580915F039091600308958F9348
:102240008FB78F939F9380915F0390916003019666
:102250009093600380935F039F918F918FBF8F91C5
:102260001895CDB7DEB7C25BD1090FB6F894DEBFC3
:102270000FBECDBF8E010F5F1F4FC8010E94C5006A
:10228000C8010E946401FCCF8BE593E00C949D0C87
:1022900097FB072E16F4009407D077FD09D00E9413
:1022A000631107FC05D03EF4909581959F4F0895EA
:1022B000709561957F4F089569279627692778273C
:1022C000872778270895AA1BBB1B51E107C0AA1FC7
:1022D000BB1FA617B70710F0A61BB70B881F991FC7
:1022E0005A95A9F780959095BC01CD010895EE0F00
:0E22F000FF1F0590F491E02D0994F894FFCFA4
:1022FE0001A038013A013E01420146014A014E0158
:10230E00520156015A015E01620166016A016E01B7
:10231E00720176017A017E013801820186018A01FD
:10232E008E019001940198012000E2948C00E294B9
:10233E008000E2949000E2949400E2949800E2947B
:10234E008200E2948F00E2948100E2949300E29482
:10235E009B00E2949700E2948300E2959400E2954C
:10236E009000E2959700E2959D00E2959A00E29525
:10237E009100E295A300E295A600E295A9000A005D
:10238E00E295B100E295B200E296A90050726F6438
:10239E00756974207061723A204D6F757371756531
:0823AE0074616972657300009F
:00000001FF
