:100000000C943E000C946A000C945B000C945B0012
:100010000C945B000C945B000C945B000C945B00F4
:100020000C945B000C945B000C945B000C945B00E4
:100030000C945B000C944E120C945B000C945B00CF
:100040000C945B000C945B000C945B000C945B00C4
:100050000C945B000C945B000C945B000C945B00B4
:100060000C945B000C945B000C945B000C945B00A4
:100070000C945B000C945B000C945B0011241FBE7D
:10008000CFEFD8E0DEBFCDBF11E0A0E0B1E0EAE302
:10009000F5E202C005900D92A83BB107D9F721E027
:1000A000A8EBB1E001C01D92AC3BB207E1F70E94A2
:1000B00060120C949B120C940000F8945298E89AE9
:1000C000E9E6F0E0808182608083808181608083C6
:1000D000789408951F920F920FB60F9211242F93C8
:1000E0003F934F935F936F937F938F939F93AF93C0
:1000F000BF93EF93FF93CF93DF9300D000D0CDB7A2
:10010000DEB7CE0101960E94880DCE0101960E94B5
:10011000B10D8FE59AEE0197F1F700C00000109243
:10012000000181E08093B9010F900F900F900F9024
:10013000DF91CF91FF91EF91BF91AF919F918F91FF
:100140007F916F915F914F913F912F910F900FBED3
:100150000F901F901895CF93DF93EC010E94C70476
:100160001AA619A6CE018B960E941C0DCE01C3962D
:100170000E94880D84E08FABCE01C8960E94400497
:10018000CE01805C9F4F0E94E5080E941304C9586D
:10019000DF4F1882DF91CF910895FC0180B197A9BC
:1001A000892359F48FE59AEE0197F1F700C000001A
:1001B00090B187A9982381E009F080E008950F931A
:1001C0001F93CF93DF93EC01F8940AE010E0E396DD
:1001D000CE010E94CB0D2FEF80E792E021508040AE
:1001E0009040E1F700C00000CE010E94FE0D2FEF0D
:1001F00080E792E0215080409040E1F700C000008D
:100200000150110929F77894DF91CF911F910F9137
:100210000895CF93DF93EC018B89882309F448C0BC
:100220002FEF89E698E1215080409040E1F700C02F
:1002300000009E819B5F9E838C858B5F8C872F81C6
:10024000920F9F839D85890F8D87FE019E012D5FF3
:100250003F4F87E091E34185493008F0818747852A
:10026000493008F087874681423308F096834485F9
:10027000423308F094873196E217F30761F78C81D7
:10028000823030F08DE08E838AE18F8387E2888729
:100290008D81823030F08DE08C878AE18D8787E216
:1002A0008E8781E090E09AA789A7DF91CF9108958A
:1002B000CE010E948D08B0CFAF92BF92CF92DF9255
:1002C000EF92FF920F931F93CF93DF93EC016C019A
:1002D00086E0C80ED11C8E01075F1F4F58017E01BA
:1002E00096E7E90EF11CF60161916F01C7010E94CA
:1002F000D5038FE097E20197F1F700C00000C01628
:10030000D10689F78501FE013C966F015F01F80176
:1003100061918F01C7010E94D5038FE097E2019799
:10032000F1F700C000000C151D0589F78501FE01DD
:100330003F966F015F01F80161918F01C7010E9433
:10034000D5038FE097E20197F1F700C00000C016D7
:10035000D10689F785016296F80161918F01C70185
:100360000E94D5038FE097E20197F1F700C00000EB
:100370000C171D0789F7DF91CF911F910F91FF9007
:10038000EF90DF90CF90BF90AF900895EF92FF92E3
:100390000F931F93CF93DF93EC010E945D00CE017A
:1003A000C3960E94B10D81E0809300011092B901C3
:1003B0001092B80111E080910001811124C0809158
:1003C000B901882359F103E010E07E0188E3E80ECB
:1003D000F11CC7010E94A7048FE59AEE0197F1F77F
:1003E00000C00000C7010E9466040150110989F78E
:1003F00082E090E09AA789A7DF91CF911F910F919A
:10040000FF90EF900895CE010E94CD00882399F2CD
:10041000109200011093B801F894CDCF8091B801EB
:10042000882351F383E090E0E5CFEF92FF920F93A2
:100430001F93CF93DF938C01F12CE12CEC01E39619
:10044000F80186818E151F0411F00CF079C0CE01E1
:100450000E94B10DFFEF29E688E1F1502040804075
:10046000E1F700C00000F12CE12CF80187818E1526
:100470001F0411F00CF080C0CE010E94B10DFFEFFF
:1004800029E688E1F15020408040E1F700C00000FB
:10049000F12CE12CF80180858E151F0411F00CF071
:1004A00087C0CE010E94CB0DFFEF29E688E1F15015
:1004B00020408040E1F700C00000F12CE12CF80161
:1004C00081858E151F0411F00CF08EC0CE010E94A4
:1004D000CB0DFFEF29E688E1F15020408040E1F7A5
:1004E00000C00000F12CE12CF80184858E151F045A
:1004F00011F00CF095C0F12CE12CF80185858E15DA
:100500001F0411F00CF0A8C0CE010E94B10DFFEF46
:1005100029E688E1F15020408040E1F700C000006A
:10052000F12CE12CF80187858E151F0411F00CF0D9
:10053000AFC0DF91CF911F910F91FF90EF90089581
:10054000CE010E94CB0D2FEF82E597E02150804035
:100550009040E1F700C00000CE010E94FE0DEFEFD9
:10056000F2E527E0E150F0402040E1F700C0000054
:100570008AE0E80EF11C64CFCE010E94CB0D9FEF04
:10058000E2E5F7E09150E040F040E1F700C0000004
:10059000CE010E94FE0D2FEF82E597E021508040B2
:1005A0009040E1F700C00000EAE0EE0EF11C5DCFE4
:1005B000CE010E94CB0D9FEFE2E5F7E09150E040C5
:1005C000F040E1F700C00000CE010E94FE0D2FEFC9
:1005D00082E597E0215080409040E1F700C00000A4
:1005E000EAE0EE0EF11C56CFCE010E94B10D9FEF56
:1005F000E4E3FCE09150E040F040E1F700C000008F
:10060000CE010E94FE0D2FEF84E39CE0215080403C
:100610009040E1F700C00000EFEFEE1AFE0A4FCF66
:10062000CE010E94CB0D9FEFE2E5F7E09150E04054
:10063000F040E1F700C00000CE010E94FE0D2FEF58
:1006400082E597E0215080409040E1F700C0000033
:10065000E5E0EE0EF11C48CFCE010E94CB0DFFEF7E
:1006600020E782E0F15020408040E1F700C0000028
:10067000CE010E94FE0D9FEFE0E7F2E09150E040D6
:10068000F040E1F700C0000025E0E20EF11C35CF9C
:10069000CE010E94B10D9FEFE0E7F2E09150E04003
:1006A000F040E1F700C00000CE010E94FE0D2FEFE8
:1006B00080E792E0215080409040E1F700C00000C8
:1006C000EFEFEE1AFE0A2ECFEF920F931F93CF9308
:1006D000DF93EC0189A59AA582309105A9F154F424
:1006E000009711F1019741F1DF91CF911F910F9187
:1006F000EF9008950397C1F7CE01C3960E94CB0DEA
:100700009E01245F3F4FFE01E958FF4FAE01475F56
:100710005F4FBE016A5F7F4FE0808901CE01805C40
:100720009F4F0E947F0C38C0CE01DF91CF911F9167
:100730000F91EF900C940901CE01DF91CF911F91A1
:100740000F91EF900C94C601CE01C3960E94FE0D4E
:100750002FEF83ED90E3215080409040E1F700C0FF
:1007600000008E01055D1F4FBE016A5F7F4FC8010B
:100770000E941F0DBE01675F7F4FC8010E941F0DC1
:10078000BE01645F7F4FC8010E941F0DBE01615F03
:100790007F4FC8010E941F0D81E090E09AA789A7B2
:1007A000A3CFFC0172A761A708958091C00085FFC7
:1007B000FCCF6093C60008951092C5008FEC809323
:1007C000C400E1ECF0E0808188618083E2ECF0E03D
:1007D0008081866080830895EF92FF920F931F932C
:1007E000CF93DF93F82EE92EEB01DB010D90002073
:1007F000E9F78D0101501109C017D10739F4DF91D4
:10080000CF911F910F91FF90EF90089569918F2DD7
:100810009E2D0E94D503F0CF8091C00087FFFCCFB2
:100820008091C6000895CF93DF930F92CDB7DEB7C6
:10083000CE0101960E94DC0380E00F90DF91CF9102
:10084000089508950F93DC01FA0111967C936E933D
:1008500012962C93129713960C93308181E090E0BE
:10086000AC0101C0440F0A95EAF7342B3083308184
:1008700001C0880F2A95EAF7832B80830F91089592
:10088000FC0182E290E09183808384E0828385E0B2
:1008900083830C9A0D9A0895FC01A081B1812C915B
:1008A000338181E090E0AC0101C0440F3A95EAF752
:1008B000242B2C93A081B1812C91328101C0880F0F
:1008C0003A95EAF7809582238C930895FC01A081E4
:1008D000B1814C91238181E090E0BC0102C0660FA0
:1008E000771F2A95E2F79B01209524232C93A08162
:1008F000B1812C91328101C0880F3A95EAF7809539
:1009000082238C9308950F931F93CF93DF93D82F57
:10091000C92F09EE13E08D2F9C2F0E944C0481E813
:1009200093E20197F1F700C000008D2F9C2F0E94E9
:10093000660481E893E20197F1F700C000000150DE
:10094000110949F7DF91CF911F910F9108951F93DE
:10095000CF93DF93D82FC92F19E78D2F9C2F0E949B
:100960004C0487E794E00197F1F700C000008D2F59
:100970009C2F0E9466048FE694E00197F1F700C077
:100980000000115051F7DF91CF911F910895CF933F
:10099000DF93EC010E94160E19821A821B821C82C0
:1009A0001D821E821F82188619861A861B861C8647
:1009B0001D861E861F86188A198A81E08A8B1B8AEB
:1009C0001C8A88E38D8B82E38E8BCE0147960E9432
:1009D0007E114F89588D698D7A8D8B8D9C8D0E94EB
:1009E00055102D8F3E8F4F8F58A369A37AA3CE0148
:1009F00083960E94880DCE0187960E94171218A632
:100A0000DF91CF910895CF93DF93EC016D9644E68B
:100A100064E6CE010E9491102FEF80E792E0215012
:100A200080409040E1F700C00000CE01DF91CF91FF
:100A30000C94E9100F931F93CF93DF93EC018981FE
:100A4000843008F446C08E01035E1F4FC8010E9427
:100A5000E9102FEF89E698E1215080409040E1F7BE
:100A600000C00000CE010E9403054E896D89C801B7
:100A70000E9491102FEF89E698E12150804090402C
:100A8000E1F700C00000CE010E940305CE010E94E4
:100A9000320E811123C0CE010E940305CE010E94B7
:100AA0001F0E882309F1CE010E940305CE010E948A
:100AB000320E811121C0C8010E94E9102FEF84E39A
:100AC0009CE0215080409040E1F700C0000081E0B0
:100AD0008B8BDF91CF911F910F9108954E8960E02C
:100AE000C8010E949110D2CF4E8943506D89635046
:100AF000C8010E94D310D2CF4E896D89C8010E94CF
:100B00009110D4CF0F931F93CF93DF93EC018C01FF
:100B1000035E1F4FCE010E94290E882361F0CE0193
:100B20000E94410E811107C06D896B5F40E0C801D2
:100B30000E949110EFCFDF91CF911F910F910895F7
:100B40000F931F93CF93DF93EC018C01035E1F4F34
:100B5000CE010E94240E882361F0CE010E941A0E5D
:100B6000811107C04E894B5F60E0C8010E9491105F
:100B7000EFCFDF91CF911F910F9108950F931F93A6
:100B8000CF93DF93EC018C01035E1F4F40E064E6DE
:100B9000C8010E9491102FE788E391E02150804026
:100BA0009040E1F700C00000CE010E942E0E882385
:100BB000E1F0C8010E94E9102FEF84E39CE021508E
:100BC00080409040E1F700C0000044E664E6C801C0
:100BD0000E9491108FE59AEE0197F1F700C0000096
:100BE000DF91CF911F910F9108956D896E5F40E065
:100BF000C8010E949110D8CF0F931F93CF93DF931A
:100C0000EC010E9403058E01035E1F4FCE010E947E
:100C1000320E811126C044E664E6C8010E94BD1070
:100C20002FE788E391E0215080409040E1F700C039
:100C30000000CE010E941F0E8823C9F0C8010E9447
:100C4000E9102FEF84E39CE0215080409040E1F7D1
:100C500000C00000CE01DF91CF911F910F910C9445
:100C6000030540E06D89C8010E949110CFCF4E89E5
:100C70006D89C8010E94BD10DCCFEF92FF920F93E7
:100C80001F93CF93DF93EC017C0127E2E20EF11C6E
:100C9000C7010E941812CE010E9403058E01035E57
:100CA0001F4FCE010E94320E811199C0C7010E94D0
:100CB0004312C8010E94E910C7010E9449129C0119
:100CC0009A892B30310508F099C0992309F48FC017
:100CD0008C81FE01E80FF11D86E081878FEF99E698
:100CE00028E1815090402040E1F700C00000CE0193
:100CF0000E9403054E896D89C8010E9491108FEFF3
:100D00009EE924E2815090402040E1F700C00000BD
:100D1000C8010E94E9108FEF99E628E181509040C8
:100D20002040E1F700C0000044E664E6C8010E94EC
:100D3000D3108FE798E321E0815090402040E1F705
:100D400000C00000CE010E941A0E882309F464C07E
:100D5000C8010E94E9108FEF99E628E18150904088
:100D60002040E1F700C00000CE010E940305CE0143
:100D70000E944E0E882309F455C0C8010E94E91054
:100D80008FEF99E628E1815090402040E1F700C0C4
:100D90000000CE010E9403054E896D89C8010E94A2
:100DA00091108FEF9EE924E2815090402040E1F7BE
:100DB00000C00000C8010E94E9108FEF99E628E109
:100DC000815090402040E1F700C00000CE01DF914B
:100DD000CF911F910F91FF90EF900C94BE054E891B
:100DE0004A5F6D896A5FC8010E9491105ACF8D8158
:100DF000FE01E80FF11D86E0878770CF992331F05F
:100E00008C81FE01E80FF11D88E067CF8D81FE0126
:100E1000E80FF11D88E0F0CF4E896D89C8010E946E
:100E2000D31090CF4E894C5F6D89C8010E949110FC
:100E30009ECFEF92FF920F931F93CF93DF93EC011E
:100E40000E9403058E01035E1F4FCE010E94320EE9
:100E5000811140C07E0127E2E20EF11CC7010E9411
:100E6000181244E664E6C8010E94BD108FE798E3BB
:100E700021E0815090402040E1F700C00000CE0109
:100E80000E941A0E882369F1C7010E944312C8010B
:100E90000E94E9108FEF99E628E1815090402040B0
:100EA000E1F700C00000C7010E944912499738F1DC
:100EB000CE010E94FC058A898823D9F08C81C80F55
:100EC000D11D84E08987DF91CF911F910F91FF9011
:100ED000EF9008956D896B5F40E0C8010E9491100A
:100EE000B4CF4E8943506D896750C8010E94BD1030
:100EF000C6CF8D81C80FD11D84E08F87E4CFCE018E
:100F0000DF91CF911F910F91FF90EF900C943D06D0
:100F10000F931F93CF93DF93EC012FEF84E39CE0BB
:100F2000215080409040E1F700C00000CE010E94B7
:100F300003058E01035E1F4F4E896D89C8010E9413
:100F400091102FEF89E698E1215080409040E1F721
:100F500000C00000CE010E94320E882311F081E013
:100F600088A744E664E6C8010E94BD108FE39CE9AF
:100F70000197F1F700C000004E8945506D8965501A
:100F8000C8010E94BD109FEF23EC89E091502040E2
:100F90008040E1F700C00000CE010E94320E88239D
:100FA00011F081E088A744E664E6C8010E94D310EE
:100FB0009FEB24ED81E0915020408040E1F700C09C
:100FC00000004E89465F6D89665FC8010E94D3109C
:100FD0009FEF24E38CE0915020408040E1F700C077
:100FE0000000CE010E94320E882311F081E088A714
:100FF0004E896D89C8010E94D3109FE728E381E0E4
:10100000915020408040E1F700C00000CE010E94D6
:10101000320E882311F081E088A744E664E6C80117
:101020000E94BD109FEB24ED81E091502040804054
:10103000E1F700C000004E896D89C8010E94BD1013
:101040009FEF23EC89E0915020408040E1F700C001
:101050000000CE010E94320E882311F081E088A7A3
:1010600044E664E6C8010E94A7109FE728E381E0F8
:10107000915020408040E1F700C000004E896D890A
:10108000C8010E94A7109FEF23EC89E091502040F7
:101090008040E1F700C00000C8010E94E9109FEF06
:1010A00029E688E1915020408040E1F700C000002F
:1010B000CE010E94320E81110DC088A581110AC097
:1010C000CE010E94BE0589818F5F89838330F1F450
:1010D0001A8A0DC018A6CE010E9419078A89882392
:1010E00071F08A818F5F8A838C818F5F8C83CE01C0
:1010F0008796DF91CF911F910F910C9418128B81DD
:101100008F5F8B838D818F5F8D83F1CF813079F3FA
:10111000DF91CF911F910F9108950F931F93CF935C
:10112000DF93EC010E945B0E8230910509F446C00A
:1011300084F40097B9F00197D1F14E89485F6D8929
:10114000685FCE014D96DF91CF911F910F910C9466
:101150009110039791F7CE01DF91CF911F910F91DD
:101160000C94A0058E01095D1F4FC8010E94431217
:10117000CE014D960E94E9108A89882379F0C80132
:101180000E9449129A81FE01E90FF11D8683CE016A
:10119000DF91CF911F910F910C948807C8010E9495
:1011A00049129B81FE01E90FF11D8487F0CFCE012A
:1011B000DF91CF911F910F910C941A05CE01DF9111
:1011C000CF911F910F910C948205DC0186E3E2E040
:1011D000F1E001900D928A95E1F708958F929F9228
:1011E000AF92CF92DF92EF92FF920F931F93CF9324
:1011F000DF93FB01CA0149019801A701E6016B30A9
:10120000710569F48D32910509F486C2BC016652FC
:1012100071096730710508F095C28EE06BC26431C8
:10122000710531F48A339105C1F3AA20B1F145C0AB
:10123000AA2099F16930710549F4BC016F50710918
:101240006430710508F074C282E054C26A307105DE
:1012500049F48F309105E1F08231910509F0C2C265
:1012600089E148C26C30710549F48E30910521F056
:101270008331910509F0B6C28AE13CC26D30710537
:1012800049F48E30910561F38331910509F0AAC2CA
:1012900088E130C26E30710581F2E330F10549F426
:1012A0008430910509F43AC28E31910579F489E0D0
:1012B00021C2E431F10509F037C28430910509F407
:1012C0002FC28E31910589F48AE014C2AC014550D9
:1012D00051094931510580F08D32910509F07BC1EA
:1012E0008DE008C2E431F10579F48E31910534F4D2
:1012F000853091050CF4AEC088E0FCC182369105C2
:1013000009F0A8C080E1F6C1E430F10509F07CC223
:101310008236910524F5D4014C9150E0435D5F4F36
:101320004817590709F4E3C011964C9150E0435D0A
:101330005F4F4817590721F4E90149814111D7C08E
:10134000D40112964C9150E0435D5F4FE90148177C
:10135000590709F4C8C08D32910509F4C8C0823616
:10136000910509F0FAC1E431F1050CF4C0C0E43193
:10137000F10509F4FAC17FC1E630F10511F5D90193
:101380004C91463048F0E401488150E0435D5F4FA6
:101390004817590709F4ABC0D90111964C91463052
:1013A00048F0E401498150E0435D5F4F4817590719
:1013B00009F49DC0D90112962C91263008F049C23B
:1013C000CACFE730F10509F5E9014881483048F016
:1013D000D4014C9150E0435D5F4F4817590709F421
:1013E00086C0E9014981483050F0D40111964C91F2
:1013F00050E0435D5F4F4817590709F478C0E90191
:101400002A81283008F025C2A6CFE830F105F9F48A
:10141000D9014C91483048F0E401488150E0435DE7
:101420005F4F4817590709F462C0D90111964C91D2
:10143000483048F0E401498150E0435D5F4F481770
:10144000590709F454C0D90112962C91DACFE4312E
:10145000F10531F5DA016C9122E630E0D901A61BE5
:10146000B109A817B907D1F0DA0111966C91261BC2
:1014700031092817390719F4698161110FC0DA01A0
:1014800012966C9142E650E0461B510948175907E5
:1014900009F079C16A81662309F491C186E12AC104
:1014A000E331F10531F5DA016C9122E630E0D90142
:1014B000A61BB109A817B907D1F0DA0111966C91F2
:1014C000261B31092817390719F4298121110FC06A
:1014D000DA0112964C9122E630E0241B31092817DC
:1014E000390709F038CF2A81222309F434CF82E169
:1014F00001C1E231F10521F52881243048F0DA01FB
:101500006C9122E630E0261B31092817390779F360
:101510002981243050F0DA0111966C9122E630E0F6
:10152000261B31092817390711F32A81243008F4C2
:1015300012CFEA014A8122E630E0241B31098EC134
:10154000E131F105F1F42881263048F0DA016C919F
:1015500022E630E0261B31092817390741F229819C
:10156000263058F0DA0111966C9122E630E0261B05
:1015700031092817390709F4BACF2A812630C8F66D
:10158000EACEE031F10501F52881283050F0DA018A
:101590006C9122E630E0261B31092817390709F43F
:1015A000A6CF2981283058F0DA0111966C9122E6F5
:1015B00030E0261B31092817390709F498CF2A8112
:1015C000283008F0B6CFC7CEEF30F105E9F2E330AE
:1015D000F10509F04CC0E40148818E3291050CF40C
:1015E0005DC0642F70E0635D7F4F6817790709F471
:1015F00050C0823691050CF0EBC0498150E0435D4C
:101600005F4F4817590741F04A8150E0435D5F4FF3
:101610004817590709F001CEE4014A8150E0435DC3
:101620005F4F4817590729F4D90112966C9161113F
:101630003CC0E401698170E0635D7F4F6817790702
:1016400009F0C1C0E901A981A1112FC048175907AC
:1016500049F4D90112964C91442309F4DECD681760
:10166000790749F4E9012981211105C0D6CDE4307B
:10167000F1050CF096C09F0121503109233131054D
:10168000B0F485369105B4F418161906BCF483E15C
:1016900031C08236910511F48FE02CC050E0435DDB
:1016A0005F4F4817590709F0B7CF85E123C02931AB
:1016B0003105A0F48536910509F44DC0009709F471
:1016C0004AC07A9721F78536910504F51816190650
:1016D0000CF4BACD892BD9F684E00CC0309789F789
:1016E000009701F1853691050CF4AECD8536910554
:1016F00071F683E0DF91CF911F910F91FF90EF90F2
:10170000DF90CF90AF909F908F9008958536910590
:1017100009F0BDCF85E0EECF84E1ECCF87E0EACFE2
:101720008BE0E8CF81E0E6CFE430F1050CF4ECCDBE
:101730008430910509F05AC0E431F1050CF04DC038
:101740008CE0D8CFAA20A1F38331910521F08E300F
:10175000910509F047C086E0CDCFE431F10509F0ED
:101760008ACF8E3291050CF486CFD4012C9130E0D3
:10177000235D3F4F2817390709F47DCF8236910545
:101780000CF079CF4ACD2817390759F42981222343
:1017900009F443CD4817590721F42A81222309F47B
:1017A0003CCD8D32910509F0DACDE431F1050CF430
:1017B0009ECEE431F10509F05ECF81E19BCF281781
:1017C000390759F7E3CF4817590709F054CF41CFEC
:1017D0008236910509F020CF5FCFE431F10509F49D
:1017E00039CE12C08430910509F4AACF8E3191050B
:1017F00009F078CDE431F10584F7BF016950710932
:101800006430710508F09CCFE530F10509F0B4CDE6
:10181000D9014C91443048F0E401488150E0435DE7
:101820005F4F4817590709F462CED90111964C91C0
:10183000443048F0E401498150E0435D5F4F481770
:10184000590709F454CED90112962C91243008F48A
:1018500082CDE4012A8130E0235D3F4F281739070C
:1018600009F09FCF44CEEF92FF920F931F93CF9337
:10187000DF93CDB7DEB76E970FB6F894DEBF0FBE1D
:10188000CDBF0E9413048BE1ECE9F1E0DE0111967B
:1018900001900D928A95E1F77E018DE1E80EF11C31
:1018A000C7010E94920E2BE1AE014F5F5F4F70E0C7
:1018B00060E0C7010E94121010E000E0AE01445E3B
:1018C0005F4FB801C7010E94A30E6C8DCE014E96EA
:1018D0000E94D5030F5F1F4F0B31110579F7C70128
:1018E0000E94880E6E960FB6F894DEBF0FBECDBF75
:1018F000DF91CF911F910F91FF90EF9008952F925C
:101900003F924F925F926F927F928F929F92AF928F
:10191000BF92CF92DF92EF92FF920F931F93CF93DC
:10192000DF93CDB7DEB72B970FB6F894DEBF0FBEAF
:10193000CDBF4C016E837F83488759872A873B87B9
:10194000302E212EBE2C0E941304512C412C712CC0
:10195000612CCE0101960E94880DCE0101960E9455
:10196000CB0D2FE788E391E0215080409040E1F7D4
:1019700000C00000CE0101960E94FE0DEFE7F8E3E3
:1019800021E0E150F0402040E1F700C00000AB2C26
:10199000C32CD22CEA84FB84088519852E813F81D3
:1019A000A301B201C4010E94EE08E82FF0E0EE0F9F
:1019B000FF1FE80DF91D60817181CE0105960E941F
:1019C000EC038FEF681A780A96E66916710409F637
:1019D000F40166A577A5CE0105960E94EC03FFEF02
:1019E0004F1A5F0A2BE14216510409F0B0CFF401FF
:1019F00066A577A5CE0105960E94EC03BB2019F0E1
:101A0000C4010E94330C2B960FB6F894DEBF0FBEB4
:101A1000CDBFDF91CF911F910F91FF90EF90DF909D
:101A2000CF90BF90AF909F908F907F906F905F907E
:101A30004F903F902F90089504960C94880D8F92AC
:101A40009F92AF92BF92CF92DF92EF92FF920F934D
:101A50001F93CF93DF93EC018B015B0183E0A80E12
:101A6000B11C88248394912CF801C1908F01D12C52
:101A7000CE010E94FF108FEB92E10197F1F700C0B9
:101A80000000CE010E940111EFEAF4E03197F1F776
:101A900000C00000F12CE12CC4010E2C02C0880F04
:101AA000991F0A94E2F78C219D21892B49F1CE01DF
:101AB0000E94FF108FE599E00197F1F700C0000048
:101AC000CE010E940111EFEAF4E03197F1F700C076
:101AD0000000FFEFEF1AFF0A80E1E816F104E1F6DB
:101AE0000A151B0509F6DF91CF911F910F91FF9009
:101AF000EF90DF90CF90BF90AF909F908F90089520
:101B0000CE010E94FF108FEA94E00197F1F7D6CF43
:101B1000FC0182E290E091838083128281E08383E2
:101B2000099A089A08950F93DC01FA0111967C93A3
:101B30006E9312962C93129713960C93308181E03A
:101B400090E0AC0101C0440F0A95EAF7342B3083D2
:101B5000308101C0880F2A95EAF7832B80830F918B
:101B60000895FC01A081B1812C91328181E090E047
:101B7000AC0101C0440F3A95EAF7242B2C93A081C5
:101B8000B1812C91338101C0880F3A95EAF7809595
:101B900082238C930895FC01A081B1812C91338123
:101BA00081E090E0AC0101C0440F3A95EAF7242BA4
:101BB0002C93A081B1812C91328101C0880F3A957C
:101BC000EAF7809582238C930895CF93DF93D82FE3
:101BD000C92F0E94CB0D8FE19EE40197F1F700C061
:101BE00000008D2F9C2F0E94B10D8FE99FE001977F
:101BF000F1F700C00000DF91CF910895FC01A081B2
:101C0000B1814C91828121E030E0B90102C0660FC0
:101C1000771F8A95E2F7CB01938101C0220F9A9535
:101C2000EAF7822B809584238C93089587B183787B
:101C300087B9089586B183FB882780F9089586B116
:101C400085FB882780F9089586B182FB882780F973
:101C5000089586B186FB882780F9089586B182951C
:101C60008170089532990BC0339909C0349907C027
:101C7000359905C086B186FB882780F9089581E0F3
:101C80000895369B07C0349907C086B183FB882727
:101C900080F9089580E0089581E00895329B07C09F
:101CA000349907C086B185FB882780F9089580E0C4
:101CB000089581E00895CF93DF93D82FC92F0E9414
:101CC000410E81111FC08D2F9C2F0E944E0E81113D
:101CD0001CC0369907C032990EC084E090E0DF91B5
:101CE000CF9108958D2F9C2F0E94410E8111F3CF2B
:101CF00082E090E0F4CF8D2F9C2F0E944E0E90E05A
:101D00000396EDCF90E080E0EACF81E090E0E7CF6E
:101D1000089580EA809301011092B90080E28093D7
:101D2000B8000895FC0180E88083CF010C94890EEF
:101D3000982F9370891305C0880F806A80930101E2
:101D400008958FEF0895FA0194EA24E89093BC0077
:101D50008091BC0087FFFCCF809101018093BB0084
:101D60002093BC008091BC0087FFFCCF8091B9001C
:101D7000883161F784EA8093BC008091BC0087FFC2
:101D8000FCCF809101018093BB0084E88093BC006C
:101D90008091BC0087FFFCCF7093BB0084E88093E8
:101DA000BC008091BC0087FFFCCF6093BB0084E83F
:101DB0008093BC008091BC0087FFFCCF8091BC0069
:101DC00087FFFCCF84EA8093BC008091BC0087FF32
:101DD000FCCF809101018F5F8093BB0084E88093EA
:101DE000BC008091BC0087FFFCCF84E88093BC00DE
:101DF0008091BC0087FFFCCF8091BB00808384E989
:101E00008093BC0080E0089594EA34E89093BC008D
:101E10008091BC0087FFFCCF809101018093BB00C3
:101E20003093BC008091BC0087FFFCCF8091B9004B
:101E3000883161F784EA8093BC008091BC0087FF01
:101E4000FCCF809101018093BB0084E88093BC00AB
:101E50008091BC0087FFFCCF7093BB0084E8809327
:101E6000BC008091BC0087FFFCCF6093BB0084E87E
:101E70008093BC008091BC0087FFFCCF84EA8093F4
:101E8000BC008091BC0087FFFCCF809101018F5F77
:101E90008093BB0084E88093BC008091BC0087FFE6
:101EA000FCCF84EC211105C084E98093BC0080E064
:101EB0000895213009F484E88093BC009091BC001F
:101EC00097FFFCCFFA019091BB0091932150AF0195
:101ED000E9CF94EA24E89093BC008091BC0087FF8E
:101EE000FCCF809101018093BB002093BC008091C6
:101EF000BC0087FFFCCF8091B900883161F784EA8C
:101F00008093BC008091BC0087FFFCCF80910101D1
:101F10008093BB0084E88093BC008091BC0087FF65
:101F2000FCCF7093BB0084E88093BC008091BC0020
:101F300087FFFCCF6093BB0084E88093BC00809156
:101F4000BC0087FFFCCF4093BB0084E88093BC00BB
:101F50008091BC0087FFFCCF84E98093BC0080E0C7
:101F60000895FB01260F372F311DDC018C91815024
:101F7000990B862B9F2B2817390718F09C012F5F90
:101F80003F4F822F8E1B24EA34E82093BC009091AF
:101F9000BC0097FFFCCF909101019093BB00309360
:101FA000BC009091BC0097FFFCCF9091B900983194
:101FB00061F794EA9093BC009091BC0097FFFCCF2E
:101FC000909101019093BB0094E89093BC00909194
:101FD000BC0097FFFCCFF093BB0094E89093BC004B
:101FE0009091BC0097FFFCCFE093BB0094E89093E6
:101FF000BC009091BC0097FFFCCF982F24E8911172
:1020000004C094E99093BC000895FA013191309393
:10201000BB002093BC003091BC0037FFFCCF915037
:10202000AF01EDCFDF92EF92FF920F931F93CF930B
:10203000DF93D82ED92F7B018A01C22F2C2FA80124
:10204000B7018D2D9D2F0E94B10F282F30E0E20E99
:10205000F31EC81B020F131FC111F0CF80E0DF91E8
:10206000CF911F910F91FF90EF90DF900895CF9344
:10207000DF9300D000D000D0CDB7DEB7DC012983DC
:102080003A834B835C836D837E8386E0FE013196C9
:1020900001900D928A95E1F726960FB6F894DEBF6F
:1020A0000FBECDBFDF91CF910895CF93DF93CDB712
:1020B000DEB762970FB6F894DEBF0FBECDBF4D8777
:1020C0005E876F87788B898B9A8B86E0FE013D96C1
:1020D000DE01119601900D928A95E1F786E0FE01EE
:1020E0003196DE01179601900D928A95E1F786E010
:1020F000FE013796DE01119601900D928A95E1F767
:1021000029813A814B815C816D817E8180E090E004
:1021100062960FB6F894DEBF0FBECDBFDF91CF91B0
:1021200008950F931F93CF93DF93D82FC92F162FA6
:10213000042F40E060E00E94CB11402F612F8D2FD3
:102140009C2FDF91CF911F910F910C94FF110F9352
:102150001F93CF93DF93D82FC92F162F042F41E061
:1021600061E00E94CB11402F612F8D2F9C2FDF91BA
:10217000CF911F910F910C94FF110F931F93CF9349
:10218000DF93D82FC92F162F042F41E060E00E9463
:10219000CB11402F612F8D2F9C2FDF91CF911F915D
:1021A0000F910C94FF110F931F93CF93DF93D82FB0
:1021B000C92F162F042F40E061E00E94CB11402F61
:1021C000612F8D2F9C2FDF91CF911F910F910C9438
:1021D000FF1140E060E00C94FF11239A2B9A14BC8D
:1021E00088E687BD82E484BD81E085BD10928200CF
:1021F00008952498089583B18295817008950C9470
:10220000ED1084B58D7F84BD84B58F7B84BD85B58D
:102210008E7F85BD17BC2B980895CF93DF93D82F61
:10222000C92F0E94ED108FEB92E10197F1F700C0EA
:1022300000008D2F9C2F0E9401118FEA94E00197DE
:10224000F1F700C00000DF91CF910895D82FC92F7A
:102250007B010E940D1116E0CC24C394D12CC60141
:10226000012E02C0880F991F0A94E2F78E219F2148
:10227000892BB1F08D2F9C2F0E94ED108FE599E0F6
:102280000197F1F700C000008D2F9C2F0E940111D3
:102290008FEA94E00197F1F700C000001150DFCF02
:1022A0008D2F9C2F0E94ED108FEA94E00197F1F79B
:1022B000E9CFF8941AB8E9E6F0E080818460808381
:1022C000E99A789408951092850010928400E1E8CC
:1022D000F0E08081816080830895FC01A1E8B0E096
:1022E0008C91887F8C93809184009091850091835C
:1022F00080830895FC01808191810895FC0186E02E
:10230000828387E0838385E0848384E085838AB148
:10231000806F8AB91092B2008FEF8093B3008093E0
:10232000B40081EF8093B00082E08093B100089503
:10233000EF920F93FC01DB01428323830483E58248
:102340003C9161E070E0CB0101C0880F0A95EAF78B
:10235000FB0101C0EE0FEA94EAF78E2BFB0101C0EE
:10236000EE0F2A95EAF78E2B01C0660F4A95EAF721
:10237000862B832B8C931092B2008FEF8093B30047
:102380008093B40081EF8093B00082E08093B1002D
:102390000F91EF900895FC01611119C02BB13481A8
:1023A00081E090E001C0880F3A95EAF7809582239A
:1023B0008BB9411118C02BB1358181E090E001C08B
:1023C000880F3A95EAF7809582238BB9089561309A
:1023D00081F78BB1948121E030E001C0220F9A9502
:1023E000EAF7822BE5CF413089F78BB1958121E067
:1023F00030E001C0220F9A95EAF7822BE6CF24E65F
:10240000822F861B3FEF839FC0011124E4E6F0E09A
:10241000BF010E9473126093B300241B239FC0016D
:102420001124BF010E9473126093B40008950895AF
:10243000E1E8F0E08081886080838081846080832F
:10244000109285001092840085E39CE090938900AF
:1024500080938800EFE6F0E08081826080831092B4
:10246000BB011092BA01789408951092BB011092AA
:10247000BA011092850010928400E1E8F0E08081BA
:10248000846080830895E1E8F0E08081887F808324
:1024900008958091BA019091BB0108958F938FB7F1
:1024A0008F939F938091BA019091BB010196909375
:1024B000BB018093BA019F918F918FBF8F91189527
:1024C000CDB7DEB7C857D1090FB6F894DEBF0FBE3F
:1024D000CDBF8E010F5F1F4FC8010E94AB00C80126
:1024E0000E946403FCCF97FB072E16F4009407D0DC
:1024F00077FD09D00E94871207FC05D03EF4909525
:1025000081959F4F0895709561957F4F0895AA1BFF
:10251000BB1B51E107C0AA1FBB1FA617B70710F0CE
:10252000A61BB70B881F991F5A95A9F78095909500
:0A253000BC01CD010895F894FFCF1F
:10253A0001A038013A013E01420146014A014E0119
:10254A00520156015A015E01620166016A016E0179
:10255A00720176017A017E013801820186018A01BF
:10256A008E019001940198012000E2948C00E2947B
:10257A008000E2949000E2949400E2949800E2943D
:10258A008200E2948F00E2948100E2949300E29444
:10259A009B00E2949700E2948300E2959400E2950E
:1025AA009000E2959700E2959D00E2959A00E295E7
:1025BA009100E295A300E295A600E295A9000A001F
:1025CA00E295B100E295B200E296A90050726F64FA
:1025DA00756974207061723A204D6F7573717565F3
:0825EA00746169726573000061
:00000001FF
