:100000000C943F000C9467000C9495000C946700CE
:100010000C9467000C9467000C9467000C946700C4
:100020000C9467000C9467000C9467000C946700B4
:100030000C9467000C9467000C9467000C946700A4
:100040000C9467000C9467000C9467000C94670094
:100050000C9467000C9467000C9467000C94670084
:100060000C9467000C9467000C9467000C94670074
:100070000C9467000C9467000C946700C808112466
:100080001FBECFEFD8E0DEBFCDBF11E0A0E0B1E0F2
:10009000E8EAF1E102C005900D92A63BB107D9F75D
:1000A00023E0A6EBB1E001C01D92AC37B207E1F747
:1000B00010E0CFE3D0E004C02197FE010E94CC08FD
:1000C000CE33D107C9F70E945C070C94D2080C9478
:1000D00000001092850010928400E1E8F0E0808139
:1000E00081608083089510928500109284000895A5
:1000F000809184009091850090937A038093790396
:10010000E091760381E08E0F80937603F0E080919A
:10011000790390917A03EE0FFF1FE252FE4F918315
:100120008083089590E080E008951F920F920FB6AB
:100130000F9211242F933F934F935F936F937F936D
:100140008F939F93AF93BF93EF93FF9380917B0324
:1001500091E0892780937B0380917B038823C9F0FA
:10016000109285001092840086EB91E00E94840436
:10017000FF91EF91BF91AF919F918F917F916F917F
:100180005F914F913F912F910F900FBE0F901F9055
:1001900018950E947800ECCF282F90E081E096130C
:1001A00001C00895829F802D11249F5FF8CFDC014C
:1001B00086E3E1E0F1E001900D928A95E1F7089580
:1001C000CF92DF92EF92FF920F931F93CF93DF9323
:1001D000FB01CA01D90198018701A60166307105AA
:1001E00089F4BC016A5071096330710508F064C07C
:1001F00082E0DF91CF911F910F91FF90EF90DF9000
:10020000CF9008956730710549F48930910541F127
:100210008D30910509F02DC289E1EBCF6830710571
:1002200049F48830910521F08E30910509F021C202
:1002300086E0DFCF6930710549F48830910521F0FF
:100240008E30910509F015C28AE1D3CF6A3071056D
:1002500049F48830910501F38E30910509F009C207
:1002600088E1C7CF6B30710509F4BBCF63307105EE
:1002700049F48430910509F4A4C18E31910579F4D3
:1002800089E0B7CF6431710509F0A9C184309105C7
:1002900009F499C18E319105E9F48AE0AACF9C0155
:1002A000255031092931310508F48FC18D3291056E
:1002B00009F00FC18DE09DCF8430910509F0DDC1BB
:1002C000E431F1050CF0D0C18CE093CFE431F105BD
:1002D00009F089C19C01255031092931310508F403
:1002E00074C1E801488122E630E0B901641B71095C
:1002F0006817790779F04981E901C41BD109C8174A
:10030000D90741F0E8014A81241B31092817390730
:1003100009F005C186E16DCFE630F10501F5E9018F
:100320004881463040F04C9150E0435D5F4F4817A4
:10033000590709F479C1E9014981463050F0119615
:100340004C91119750E0435D5F4F4817590709F4EE
:100350006BC1E9012A81263008F05CC1BFC1E730DA
:10036000F10501F5E9014881483040F04C9150E039
:10037000435D5F4F4817590709F456C1E9014981A8
:10038000483050F011964C91119750E0435D5F4F0B
:100390004817590709F448C1E9012A81283008F0B3
:1003A00039C19CC1E830F105E9F2E431F10509F405
:1003B00098CFE331F105C9F4E801488122E630E045
:1003C000B901641B71096817790709F42DC14981C6
:1003D000241B31092817390709F426C1E8014A818D
:1003E00022E630E0241B31091BC1E231F10509F599
:1003F000EA012881243050F0E801688122E630E0EB
:10040000261B31092817390709F40EC1EA01298191
:10041000243050F0E801698122E630E0261B3109E2
:100420002817390709F400C1EA012A812430B0F6FF
:1004300055C1E131F10511F5EA012881263050F06E
:10044000E801688122E630E0261B310928173907C8
:1004500009F4EAC0EA012981263050F0E8016981F7
:1004600022E630E0261B31092817390709F4DCC0E1
:10047000EA012A81263008F0B1CF30C1E031F10520
:1004800011F5EA012881283050F0E801688122E660
:1004900030E0261B31092817390709F4C5C0EA01E5
:1004A0002981283050F0E801698122E630E0261BDE
:1004B00031092817390709F4B7C0EA012A81283021
:1004C00008F08CCF0BC1EF30F105D9F2E330F10524
:1004D00019F52C918E329105A4F1422F50E0435D25
:1004E0005F4F4817590741F1823691050CF0B7C0AC
:1004F00011962C91119730E0235D3F4F2817390753
:1005000031F112962C91129730E0235D3F4F28175E
:100510003907E9F08EE06DCEE430F1055CF18D3203
:10052000910509F0DFC0E431F1050CF47DC0E43140
:10053000F10531F581E15DCE8236910511F48FE050
:1005400058CE30E0235D3F4F2817390789F01196C8
:100550002C91119730E0235D3F4F2817390741F068
:1005600012962C9130E0235D3F4F2817390799F5FB
:1005700085E13FCE1E161F0654F4853691053CF4E6
:100580001816190624F4EA31F1050CF466C09F012F
:10059000215031092931310508F44ACEEF2B41F4BD
:1005A0000097A9F0853691050CF422CE83E021CE88
:1005B0008536910574F4181619060CF419CE84E0EA
:1005C00018CE87E016CE8BE014CE88E012CE81E004
:1005D00010CE85E00ECE8536910594F229CE64309A
:1005E00071050CF069CEE430F10509F054C02C918E
:1005F00030E0235D3F4F2817390719F48236910503
:100600009CF011962C91119730E0235D3F4F2817F5
:10061000390751F012962C91129730E0235D3F4F2D
:100620002817390709F07BCF82E1E3CDE431F105EA
:1006300009F0A3CF8E3291050CF4A2CF2C9130E0BB
:10064000235D3F4F2817390721F0823691050CF4BE
:1006500061CF853691050CF09ACF83E1CACD823601
:10066000910509F074CF6BCFE431F10509F439CE6F
:1006700012C08430910509F427CE8E31910509F01E
:1006800025CEE431F10584F7BF016950710964306A
:10069000710508F019CEE530F10509F03DCEE9010C
:1006A0004881443040F04C9150E0435D5F4F481723
:1006B000590709F4B9CFE9014981443050F0119646
:1006C0004C91119750E0435D5F4F4817590709F46B
:1006D000ABCFE9012A81243008F09CCF8D329105FF
:1006E00009F4A2CF8236910509F0A0CFE431F105DB
:1006F0000CF49ACFE431F10509F045CF80E179CDD2
:10070000EF92FF920F931F93CF93DF93CDB7DEB796
:100710006E970FB6F894DEBF0FBECDBF0E94BC0629
:100720008BE1EBE9F1E0DE01119601900D928A95E3
:10073000E1F77E018DE1E80EF11CC7010E94D904AA
:100740002BE1AE014F5F5F4F70E060E0C7010E9498
:10075000590610E000E0AE01445E5F4FB801C701EA
:100760000E94EA046C8DCE014E960E947E060F5FB9
:100770001F4F0B31110579F7C7010E94CF046E9608
:100780000FB6F894DEBF0FBECDBFDF91CF911F91A2
:100790000F91FF90EF9008952F923F924F925F92AA
:1007A0006F927F928F929F92AF92BF92CF92DF9281
:1007B000EF92FF920F931F93CF93DF9300D000D05F
:1007C00000D00F92CDB7DEB74C016A837B834C8398
:1007D0005D832E833F83302E212EBE2C0E94BC06CB
:1007E000512C412C712C612CAB2CC32CD22CEE80C3
:1007F000FF800C811D812A813B81A301B201C401CC
:100800000E94E000E82FF0E0EE0FFF1FE80DF91D59
:1008100060817181CE0101960E9495068FEF681A62
:10082000780AE6E66E167104F9F6F40166A577A576
:10083000CE0101960E949506FFEF4F1A5F0A8BE1E9
:100840004816510479F6BB2019F0C4010E948003B8
:1008500027960FB6F894DEBF0FBECDBFDF91CF91C4
:100860001F910F91FF90EF90DF90CF90BF90AF90CE
:100870009F908F907F906F905F904F903F902F90C0
:100880000895FC0182E290E091838083128281E0EE
:100890008383099A089A08950F93DC01FA0111964F
:1008A0007C936E9312962C93129713960C9330812F
:1008B00081E090E0AC0101C0440F0A95EAF7342BC7
:1008C0003083308101C0880F2A95EAF7832B80831B
:1008D0000F910895FC01A081B1812C91328181E0BA
:1008E00090E0AC0101C0440F3A95EAF7242B2C9319
:1008F000A081B1812C91338101C0880F3A95EAF72C
:10090000809582238C930895FC01A081B1812C9164
:10091000338181E090E0AC0101C0440F3A95EAF7E1
:10092000242B2C93A081B1812C91328101C0880F9E
:100930003A95EAF7809582238C930895CF93DF93BD
:10094000D82FC92F0E9484048FE19EE40197F1F70C
:1009500000C000008D2F9C2F0E946A048FE99FE049
:100960000197F1F700C00000DF91CF910895FC01DD
:10097000A081B1814C91828121E030E0B90102C0B7
:10098000660F771F8A95E2F7CB01938101C0220F92
:100990009A95EAF7822B809584238C930895089585
:1009A00080EA809300011092B90080E28093B80041
:1009B0000895FC0180E88083CF010C94D004982F27
:1009C0009370891305C0880F806A80930001089591
:1009D0008FEF0895FA0194EA24E89093BC00809187
:1009E000BC0087FFFCCF809100018093BB00209367
:1009F000BC008091BC0087FFFCCF8091B90088319A
:100A000061F784EA8093BC008091BC0087FFFCCF33
:100A1000809100018093BB0084E88093BC008091AA
:100A2000BC0087FFFCCF7093BB0084E88093BC00C0
:100A30008091BC0087FFFCCF6093BB0084E880936B
:100A4000BC008091BC0087FFFCCF8091BC0087FF79
:100A5000FCCF84EA8093BC008091BC0087FFFCCF70
:100A6000809100018F5F8093BB0084E88093BC007D
:100A70008091BC0087FFFCCF84E88093BC0080910C
:100A8000BC0087FFFCCF8091BB00808384E980930A
:100A9000BC0080E0089594EA34E89093BC00809113
:100AA000BC0087FFFCCF809100018093BB00309396
:100AB000BC008091BC0087FFFCCF8091B9008831D9
:100AC00061F784EA8093BC008091BC0087FFFCCF73
:100AD000809100018093BB0084E88093BC008091EA
:100AE000BC0087FFFCCF7093BB0084E88093BC0000
:100AF0008091BC0087FFFCCF6093BB0084E88093AB
:100B0000BC008091BC0087FFFCCF84EA8093BC00CE
:100B10008091BC0087FFFCCF809100018F5F8093A4
:100B2000BB0084E88093BC008091BC0087FFFCCFB1
:100B300084EC211105C084E98093BC0080E0089515
:100B4000213009F484E88093BC009091BC0097FFA9
:100B5000FCCFFA019091BB0091932150AF01E9CFF6
:100B600094EA24E89093BC008091BC0087FFFCCFFE
:100B7000809100018093BB002093BC008091BC0059
:100B800087FFFCCF8091B900883161F784EA8093B8
:100B9000BC008091BC0087FFFCCF80910001809356
:100BA000BB0084E88093BC008091BC0087FFFCCF31
:100BB0007093BB0084E88093BC008091BC0087FFE9
:100BC000FCCF6093BB0084E88093BC008091BC00A4
:100BD00087FFFCCF4093BB0084E88093BC008091EA
:100BE000BC0087FFFCCF84E98093BC0080E00895BF
:100BF000FB01260F372F311DDC018C918150990BA1
:100C0000862B9F2B2817390718F09C012F5F3F4F29
:100C1000822F8E1B24EA34E82093BC009091BC0004
:100C200097FFFCCF909100019093BB003093BC00E4
:100C30009091BC0097FFFCCF9091B900983161F77B
:100C400094EA9093BC009091BC0097FFFCCF9091E8
:100C500000019093BB0094E89093BC009091BC007D
:100C600097FFFCCFF093BB0094E89093BC00909169
:100C7000BC0097FFFCCFE093BB0094E89093BC00CE
:100C80009091BC0097FFFCCF982F24E8911104C0ED
:100C900094E99093BC000895FA0131913093BB0020
:100CA0002093BC003091BC0037FFFCCF9150AF01C6
:100CB000EDCFDF92EF92FF920F931F93CF93DF93CD
:100CC000D82ED92F7B018A01C22F2C2FA801B70162
:100CD0008D2D9D2F0E94F805282F30E0E20EF31E87
:100CE000C81B020F131FC111F0CF80E0DF91CF911D
:100CF0001F910F91FF90EF90DF9008958091C000B9
:100D000085FFFCCF6093C60008951092C5008FEC5C
:100D10008093C400E1ECF0E0808188618083E2ECA4
:100D2000F0E08081866080830895EF92FF920F93B8
:100D30001F93CF93DF93F82EE92EEB01DB010D908B
:100D40000020E9F78D0101501109C017D10739F4CE
:100D5000DF91CF911F910F91FF90EF9008956991CE
:100D60008F2D9E2D0E947E06F0CF8091C00087FFC0
:100D7000FCCF8091C6000895CF93DF930F92CDB73B
:100D8000DEB7CE0101960E94850680E00F90DF91CC
:100D9000CF9108950895239A2B9A14BC88E687BDB5
:100DA00082E484BD81E085BD10928200089524987C
:100DB000089583B18295817008950C94CB0684B513
:100DC0008D7F84BD84B58F7B84BD85B58E7F85BDC9
:100DD00017BC2B980895CF93DF93D82FC92F0E946B
:100DE000CB068FEB92E10197F1F700C000008D2F49
:100DF0009C2F0E94DF068FEA94E00197F1F700C074
:100E00000000DF91CF910895D82FC92F7B010E9458
:100E1000EB0616E0CC24C394D12CC601012E02C0EF
:100E2000880F991F0A94E2F78E219F21892BB1F038
:100E30008D2F9C2F0E94CB068FE599E00197F1F74B
:100E400000C000008D2F9C2F0E94DF068FEA94E0E7
:100E50000197F1F700C000001150DFCF8D2F9C2FBC
:100E60000E94CB068FEA94E00197F1F7E9CFF8945E
:100E70001AB8E9E6F0E0808184608083E99A78948A
:100E800008951092850010928400E1E8F0E08081DE
:100E9000816080830895FC01A1E8B0E08C91887F97
:100EA0008C93809184009091850091838083089534
:100EB000FC01808191810895CDB7DEB7CF51D1403B
:100EC0000FB6F894DEBF0FBECDBF0E946900CE0101
:100ED000815F9E4F0E943707CE01815F9E4F0E9427
:100EE000D7060E94BC06809176038C3CE0F3F89410
:100EF00086EB91E00E946A04FE013196AF012BEC73
:100F000030E0D901AA0FBB1FA252BE4F8D919C9118
:100F1000BC01605777416031774208F430C18037B7
:100F2000B7E19B0708F42DC188569244883E90484B
:100F300008F029C187E0DA018D93AD012150310914
:100F400000F78FEF9FEF20E03081DF0131963730DF
:100F5000B9F440E030E01E9160E051E071E0760FBE
:100F6000641313C1519F300D1124472F783099F726
:100F7000A3E0B1E0AC0FBD1FA20FB11D3C932F5FEA
:100F800001968B3C910501F7C35FDE4F8881998103
:100F9000CD50D140982789279827C45EDE4F99838A
:100FA0008883CC51D140FE01E75EFE4FC65FDE4F25
:100FB00088819981CA50D1409827892798279183A1
:100FC0008083C95FDE4F88819981C750D1409827BF
:100FD00089279827CA5EDE4F99838883C651D140FE
:100FE000CC5FDE4F88819981C450D14098278927F2
:100FF0009827CD5EDE4F99838883C351D140C45F6B
:10100000DE4F8881CC50D140C25EDE4F8883CE5106
:10101000D140C75FDE4F8881C950D1408283CA5F0B
:10102000DE4F8881C650D140C85EDE4F8883C851EC
:10103000D140CD5FDE4F8881C350D140CB5EDE4FC3
:101040008883C551D1408FE097E20197F1F700C046
:1010500000008E010A5E1E4FD80113964D01DE2E50
:101060006F2EB02EC12E7E01B1EEEB1ABEEFFB0A41
:10107000F80161918F01C7010E947E068FE19EE415
:101080000197F1F700C000007E2CAF2C0815190560
:1010900079F7AFE0B7E21197F1F700C000008E01D9
:1010A000045E1E4F7801B3E0EB0EF11CF801619174
:1010B0008F01872D9A2D0E947E068FE19EE4019775
:1010C000F1F700C000000E151F0581F7AFE0B7E291
:1010D0001197F1F700C000008E010D5E1E4F7801E0
:1010E000B3E0EB0EF11CF80161918F01872D9A2D71
:1010F0000E947E068FE19EE40197F1F700C0000098
:10110000E016F10681F7C45EDE4F8881CC51D140F4
:10111000C35EDE4F9881CD51D140980FC35EDE4F44
:101120009883CD51D140C25EDE4F2881CE51D1404F
:10113000820F890FC25EDE4F8883CE51D140CE012F
:1011400083539F4F0E94D700EE24E3948E010D5EDF
:101150001E4F2B2D3C2D4D2D562DBE01645E7E4F16
:10116000CE0183539F4F0E94CC0390E080E0C15E8C
:10117000DE4F0FB6F894DEBF0FBECDBF089581E0FD
:10118000DACE80E0D8CE89E0D6CE550F672FE6CEF6
:1011900086EB91E00C944104EE0FFF1F0590F49153
:0811A000E02D0994F894FFCF43
:1011A800A0370139013D014101450149014D015176
:1011B80001550159015D016101650169016D017107
:1011C80001750179017D0137018101850189018D51
:1011D800018F01930197012000E2948C00E2948032
:1011E80000E2949000E2949400E2949800E29482E1
:1011F80000E2948F00E2948100E2949300E2949BD1
:1012080000E2949700E2948300E2959400E29590BE
:1012180000E2959700E2959D00E2959A00E295918B
:1012280000E295A300E295A600E295A9000A00E273
:1012380095B100E295B200E296A90050726F64750C
:101248006974207061723A204D6F75737175657499
:061258006169726573007C
:00000001FF
