:100000000C943F000C9476000C94DE0A0C9467006C
:100010000C9467000C9467000C9467000C946700C4
:100020000C9467000C9467000C9467000C946700B4
:100030000C9467000C9493100C9467000C94670068
:100040000C9467000C9467000C9467000C94670094
:100050000C9467000C9467000C9467000C94670084
:100060000C9467000C9467000C9467000C94670074
:100070000C9467000C9467000C946700B81011246E
:100080001FBECFEFD8E0DEBFCDBF11E0A0E0B1E0F2
:10009000E6EEF1E202C005900D92A83BB107D9F758
:1000A00023E0A8EBB1E001C01D92A136B207E1F751
:1000B00010E0CFE3D0E004C02197FE010E94EB10D6
:1000C000CE33D107C9F70E94A5100C94F1100C94FF
:1000D0000000F8945298E89AE9E6F0E080818260A6
:1000E0008083808181608083789408951F920F922D
:1000F0000FB60F9211242F933F934F935F936F93FB
:100100007F938F939F93AF93BF93EF93FF93CF937F
:10011000DF9300D000D0CDB7DEB78FE59AEE019720
:10012000F1F700C00000CE0101960E94110CCE0133
:1001300001960E94540C809100018823E1F01092F6
:10014000000181E08093BA010F900F900F900F9003
:10015000DF91CF91FF91EF91BF91AF919F918F91DF
:100160007F916F915F914F913F912F910F900FBEB3
:100170000F901F9018958091B901882329F3109250
:10018000B90181E08093B801DFCF0F931F93CF9324
:10019000DF9300D000D0CDB7DEB78C010E944203C0
:1001A000F80112A611A6C8018B960E94110CC80175
:1001B0008F960E94BB02F801ED5BFF4F10823196D3
:1001C0001082C8018B5B9F4F0E944007F801E558E1
:1001D000FF4F81E080830E94AA0ACE0101960E940F
:1001E0007802CE0101960E9418020F900F900F9096
:1001F0000F90DF91CF911F910F910895EF920F9380
:100200001F93CF93DF93EC01F894FC01E558FF4F67
:100210008C01005C1F4F9C01235C3F4FAC01465C8E
:100220005F4FBC01695C7F4FE0808B5B9F4F0E94FA
:10023000350A0AE010E0AB96CE010E94540C2FEF75
:1002400080E792E0215080409040E1F700C000003C
:10025000CE010E94870C2FEF80E792E02150804072
:100260009040E1F700C000000150110929F778948F
:10027000DF91CF911F910F91EF900895EF92FF9230
:100280000F931F93CF93DF93EC010E94690081E0ED
:10029000809300011092BA018E01055D1F4F80917D
:1002A0000001811130C08091BA01882329F103E057
:1002B00010E07E012FE2E20EF11CC7010E94220332
:1002C0008FE798E321E0815090402040E1F700C0A3
:1002D0000000C7010E94E1028FE798E321E081500E
:1002E00090402040E1F700C000000150110929F7BB
:1002F00081E090E09AA789A7DF91CF911F910F919C
:10030000FF90EF900895C8010E943A0CC8CF0F9358
:100310001F93CF93DF93EC0189A59AA582309105B5
:1003200009F467C04CF40097B1F10197D9F1DF915E
:10033000CF911F910F9108950397C9F78E01055D25
:100340001F4FC8010E943A0C2FEF84E39CE021501C
:1003500080409040E1F700C00000C8010E94540CAA
:100360002FEF84E39CE0215080409040E1F700C0F3
:100370000000C8010E943A0CCE010E94FE001092BB
:10038000B80181E08093B901FE01ED5BFF4F10825F
:100390003196108218C0CE01DF91CF911F910F913D
:1003A0000C943E01CE018B960E94870CCE01C7961D
:1003B0000E94250BFE01EC5BFF4F8081882331F00A
:1003C00081E08093B90182E090E01FC0FE01ED5B07
:1003D000FF4F8081882309F4AACF8E01015D1F4F52
:1003E000C8010E94FE02C8010E94FE021AA619A6B8
:1003F0009ECFCE018B960E94540C78948091B801C8
:10040000882309F494CF83E090E09AA789A78FCF3F
:10041000FC0172A761A70895239A2B9A14BC88E661
:1004200087BD82E484BD81E085BD1092820008957D
:100430002498089583B18295817008950C940C02DC
:1004400084B58D7F84BD84B58F7B84BD85B58E7F5B
:1004500085BD17BC2B980895CF93DF93D82FC92F54
:100460000E940C028FEB92E10197F1F700C00000AF
:100470008D2F9C2F0E9420028FEA94E00197F1F7C4
:1004800000C00000DF91CF910895D82FC92F7B01C4
:100490000E942C0216E0CC24C394D12CC601012E5C
:1004A00002C0880F991F0A94E2F78E219F21892BA1
:1004B000B1F08D2F9C2F0E940C028FE599E00197DF
:1004C000F1F700C000008D2F9C2F0E9420028FEAC0
:1004D00094E00197F1F700C000001150DFCF8D2F9D
:1004E0009C2F0E940C028FEA94E00197F1F7E9CF6C
:1004F000F8941AB8E9E6F0E0808184608083E99A94
:10050000789408951092850010928400E1E8F0E05C
:100510008081816080830895FC01A1E8B0E08C9126
:10052000887F8C9380918400909185009183808353
:100530000895FC018081918108950F93DC01FA01F7
:1005400011967C936E9312962C93129713960C939C
:10055000308181E090E0AC0101C0440F0A95EAF7D8
:10056000342B3083308101C0880F2A95EAF7832B22
:1005700080830F910895FC0182E290E09183808353
:1005800084E0828385E083830C9A0D9A0895FC01B0
:10059000A081B1812C91338181E090E0AC0101C058
:1005A000440F3A95EAF7242B2C93A081B1812C912A
:1005B000328101C0880F3A95EAF7809582238C93A7
:1005C0000895FC01A081B1814C91238181E090E0EC
:1005D000BC0102C0660F771F2A95E2F79B012095A8
:1005E00024232C93A081B1812C91328101C0880FEA
:1005F0003A95EAF7809582238C9308950F931F9381
:10060000CF93DF93D82FC92F05EB10E08D2F9C2FB0
:100610000E94C70281E893E20197F1F700C0000051
:100620008D2F9C2F0E94E10281E893E20197F1F760
:1006300000C000000150110949F7DF91CF911F91CF
:100640000F9108951F93CF93DF93D82FC92F15EBE8
:100650008D2F9C2F0E94C70287E794E00197F1F746
:1006600000C000008D2F9C2F0E94E1028FE694E0D5
:100670000197F1F700C00000115051F7DF91CF91C1
:100680001F910895CF93DF93EC010E949F0C198274
:100690001A821B821C821D821E821F821886198666
:1006A0001A861B861C861D861E861F86188A198A36
:1006B00081E08A8B1B8A1C8A86E38D8B80E38E8B7C
:1006C000CE0147960E94C30F4F89588D698D7A8D50
:1006D0008B8D9C8D0E94DE0E2D8F3E8F4F8F58A3E9
:1006E00069A37AA3CE0183960E94110CCE0187964E
:1006F0000E945C1018A6DF91CF910895CF93DF93ED
:10070000EC016D9644E664E6CE010E941A0F2FEFCD
:1007100080E792E0215080409040E1F700C0000067
:10072000CE01DF91CF910C94720FEF92FF920F9355
:100730001F93CF93DF93EC018981843008F453C079
:100740008E01035E1F4FC8010E94720F7E0123E2DB
:10075000E20EF11CC7010E943A0C8FEF99E628E1E6
:10076000815090402040E1F700C00000CE010E947F
:100770007E034E896D89C8010E941A0F8FEF99E69A
:1007800028E1815090402040E1F700C00000CE01F8
:100790000E947E03CE010E94BB0C81112BC0CE01B2
:1007A0000E947E03CE010E94A80C882349F1CE014D
:1007B0000E947E03CE010E94BB0C811127C0C7019D
:1007C0000E943A0CC8010E94720F8FEF94E32CE054
:1007D000815090402040E1F700C00000C7010E9416
:1007E000870C81E08B8BDF91CF911F910F91FF9050
:1007F000EF9008954E8960E0C8010E941A0FCACF99
:100800004E896D89C8010E945C0FCCCF4E896D89DD
:10081000C8010E941A0FCECF0F931F93CF93DF937F
:10082000EC018C01035E1F4FCE010E94B20C8823A5
:1008300061F0CE010E94CA0C811107C06D896A5F08
:1008400040E0C8010E941A0FEFCFDF91CF911F91B6
:100850000F9108950F931F93CF93DF93EC018C01B9
:10086000035E1F4FCE010E94AD0C882361F0CE01C4
:100870000E94A30C811107C04E894A5F60E0C80145
:100880000E941A0FEFCFDF91CF911F910F91089522
:100890000F931F93CF93DF93EC018C01035E1F4FE7
:1008A00044E664E6C8010E941A0F2FE788E391E04E
:1008B000215080409040E1F700C00000CE010E942E
:1008C000A30C8823E1F0C8010E94720F2FEF84E38C
:1008D0009CE0215080409040E1F700C0000044E6D9
:1008E00064E6C8010E941A0F8FE59AEE0197F1F7AE
:1008F00000C00000DF91CF911F910F91089540E05B
:100900006D89C8010E941A0FD9CF0F931F93CF93FF
:10091000DF93EC010E947E038E01035E1F4FCE0128
:100920000E94BB0C811118C044E664E6C8010E9415
:10093000460F2FE788E391E0215080409040E1F797
:1009400000C00000CE010E94A80C882359F0DF915E
:10095000CF911F910F91089540E06D89C8010E94C9
:100960001A0FDDCF4E896D89C8010E94460FEACF6C
:10097000CF92DF92EF92FF920F931F93CF93DF936B
:10098000EC017C0123E2E20EF11CC7010E94870CFE
:100990006E0187E2C80ED11CC6010E945D10CE0117
:1009A0000E947E038E01035E1F4FCE010E94BB0C8E
:1009B0008111A5C0C6010E948810C8010E94720F53
:1009C000C6010E948E100B9708F0A8C0C7010E94B4
:1009D000540C8A89882309F49AC08C81FE01E80F9F
:1009E000F11D86E081879FEF29E688E19150204044
:1009F0008040E1F700C00000CE010E947E034E89D6
:100A00006D89C8010E941A0F9FEF2EE984E2915070
:100A100020408040E1F700C00000C8010E94720F32
:100A20009FEF29E688E1915020408040E1F700C027
:100A30000000C7010E94870C44E664E6C8010E94DA
:100A40005C0F9FE728E381E0915020408040E1F770
:100A500000C00000CE010E94A30C882309F470C0DE
:100A6000C8010E94720F9FEF29E688E19150204053
:100A70008040E1F700C00000C7010E94540CCE0185
:100A80000E947E03CE010E94D70C882309F45EC029
:100A9000C7010E94870CC8010E94720F9FEF29E6D0
:100AA00088E1915020408040E1F700C00000CE0175
:100AB0000E947E034E896D89C8010E941A0F9FEF24
:100AC0002EE984E2915020408040E1F700C0000010
:100AD000C8010E94720F9FEF29E688E191502040E3
:100AE0008040E1F700C00000CE01DF91CF911F915F
:100AF0000F91FF90EF90DF90CF900C9448044E89B7
:100B00004A5F6D896A5FC8010E941A0F4ECF8D81BE
:100B1000FE01E80FF11D86E0878765CFC7010E94BF
:100B20003A0C8A89882331F08C81FE01E80FF11D8F
:100B300088E058CF8D81FE01E80FF11D88E0ECCFF1
:100B40004E896D89C8010E945C0F84CF4E896D89E2
:100B5000C8010E941A0F96CFCF92DF92EF92FF92B8
:100B60000F931F93CF93DF93EC010E947E038E01BE
:100B7000035E1F4FCE010E94BB0C811149C07E0154
:100B800027E2E20EF11CC7010E945D1044E664E614
:100B9000C8010E94460F8FEB94ED21E081509040F8
:100BA0002040E1F700C000006E0183E2C80ED11CB6
:100BB000CE010E94A30C882391F1C6010E94540C1F
:100BC000C7010E948810C8010E94720F9FEF29E69A
:100BD00088E1915020408040E1F700C00000C7014B
:100BE0000E948E10499750F1CE010E9485048A8997
:100BF0008823F1F08C81C80FD11D84E08987DF91B3
:100C0000CF911F910F91FF90EF90DF90CF900895BB
:100C10006D896B5F40E0C8010E941A0FABCF4E890F
:100C20006D89C8010E94460FC6010E943A0CC0CFD0
:100C30008D81C80FD11D84E08F87E1CFCE01DF9178
:100C4000CF911F910F91FF90EF90DF90CF900C9478
:100C5000B8040F931F93CF93DF93EC012FEF89E636
:100C600098E1215080409040E1F700C00000CE01A3
:100C70000E947E038E01035E1F4F4E896D89C8015D
:100C80000E941A0F2FEF89E698E121508040904092
:100C9000E1F700C00000CE010E94BB0C882311F0D8
:100CA00081E088A744E664E6C8010E94460F2FEB66
:100CB00084ED91E0215080409040E1F700C00000B9
:100CC0004E896D89C8010E94460F2FEF83EC99E091
:100CD000215080409040E1F700C00000CE010E940A
:100CE000BB0C882311F081E088A744E664E6C801C4
:100CF0000E945C0F2FEB84ED91E0215080409040EA
:100D0000E1F700C000004E894A5F6D89C8010E946A
:100D10005C0F2FEF83EC99E0215080409040E1F789
:100D200000C00000CE010E94BB0C882311F081E0BE
:100D300088A7C8010E94720F2FEF89E698E1215021
:100D400080409040E1F700C00000CE010E94BB0C43
:100D500081110DC088A581110AC0CE010E944804EE
:100D600089818F5F89838330F1F41A8A0DC018A6B8
:100D7000CE010E94AC058A89882371F08A818F5F39
:100D80008A838C818F5F8C83CE018796DF91CF9190
:100D90001F910F910C945D108B818F5F8B838D81E0
:100DA0008F5F8D83F1CF813079F3DF91CF911F91E8
:100DB0000F9108950F931F93CF93DF93EC010E943F
:100DC000E40C8230910509F454C0D4F4009709F181
:100DD000019709F447C08E010D5D1F4FC8010E94A5
:100DE0006E0C4E89485F6D89685FCE014D960E94FA
:100DF0001A0FC801DF91CF911F910F910C94870CAE
:100E0000039749F7CE01DF91CF911F910F910C9479
:100E10002A048E01095D1F4FC8010E948810CE016F
:100E20004D960E94720F8A89882399F0C8010E940A
:100E30008E109A81FE01E90FF11D8683CE01839603
:100E40000E94540CCE01DF91CF911F910F910C9411
:100E50002906C8010E948E109B81FE01E90FF11D39
:100E60008487ECCFCE01DF91CF911F910F910C942D
:100E70009503CE01DF91CF911F910F910C940C043B
:100E8000DC0186E3E2E0F1E001900D928A95E1F762
:100E90000895CF92DF92EF92FF920F931F93CF931B
:100EA000DF93FB01CA01D90198018701A6016630D1
:100EB000710589F4BC016A5071096330710508F04D
:100EC00064C082E0DF91CF911F910F91FF90EF906E
:100ED000DF90CF9008956730710549F4893091050E
:100EE00041F18D30910509F02DC289E1EBCF6830D9
:100EF000710549F48830910521F08E30910509F093
:100F000021C286E0DFCF6930710549F48830910550
:100F100021F08E30910509F015C28AE1D3CF6A30F5
:100F2000710549F48830910501F38E30910509F07F
:100F300009C288E1C7CF6B30710509F4BBCF6330BC
:100F4000710549F48430910509F4A4C18E319105ED
:100F500079F489E0B7CF6431710509F0A9C1843013
:100F6000910509F499C18E319105E9F48AE0AACF7F
:100F70009C01255031092931310508F48FC18D328A
:100F8000910509F00FC18DE09DCF8430910509F0E6
:100F9000DDC1E431F1050CF0D0C18CE093CFE43138
:100FA000F10509F089C19C0125503109293131052C
:100FB00008F474C1E801488122E630E0B901641BFD
:100FC00071096817790779F04981E901C41BD109D2
:100FD000C817D90741F0E8014A81241B31092817B5
:100FE000390709F005C186E16DCFE630F10501F55D
:100FF000E9014881463040F04C9150E0435D5F4F3D
:101000004817590709F479C1E9014981463050F080
:1010100011964C91119750E0435D5F4F4817590767
:1010200009F46BC1E9012A81263008F05CC1BFC117
:10103000E730F10501F5E9014881483040F04C9175
:1010400050E0435D5F4F4817590709F456C1E90165
:101050004981483050F011964C91119750E0435D12
:101060005F4F4817590709F448C1E9012A81283020
:1010700008F039C19CC1E830F105E9F2E431F1052D
:1010800009F498CFE331F105C9F4E801488122E67B
:1010900030E0B901641B71096817790709F42DC1A3
:1010A0004981241B31092817390709F426C1E801B1
:1010B0004A8122E630E0241B31091BC1E231F105EF
:1010C00009F5EA012881243050F0E801688122E620
:1010D00030E0261B31092817390709F40EC1EA014F
:1010E0002981243050F0E801698122E630E0261B96
:1010F00031092817390709F400C1EA012A8124308F
:10110000B0F655C1E131F10511F5EA01288126302B
:1011100050F0E801688122E630E0261B31092817EB
:10112000390709F4EAC0EA012981263050F0E801C4
:10113000698122E630E0261B31092817390709F4B6
:10114000DCC0EA012A81263008F0B1CF30C1E0319D
:10115000F10511F5EA012881283050F0E801688195
:1011600022E630E0261B31092817390709F4C5C0EB
:10117000EA012981283050F0E801698122E630E057
:10118000261B31092817390709F4B7C0EA012A815B
:10119000283008F08CCF0BC1EF30F105D9F2E330E5
:1011A000F10519F52C918E329105A4F1422F50E0F2
:1011B000435D5F4F4817590741F1823691050CF0A6
:1011C000B7C011962C91119730E0235D3F4F28173F
:1011D000390731F112962C91129730E0235D3F4F81
:1011E00028173907E9F08EE06DCEE430F1055CF1A7
:1011F0008D32910509F0DFC0E431F1050CF47DC0BA
:10120000E431F10531F581E15DCE8236910511F4CD
:101210008FE058CE30E0235D3F4F2817390789F023
:1012200011962C91119730E0235D3F4F2817390715
:1012300041F012962C9130E0235D3F4F281739077B
:1012400099F585E13FCE1E161F0654F485369105AB
:101250003CF41816190624F4EA31F1050CF466C0C2
:101260009F01215031092931310508F44ACEEF2B75
:1012700041F40097A9F0853691050CF422CE83E065
:1012800021CE8536910574F4181619060CF419CE82
:1012900084E018CE87E016CE8BE014CE88E012CE24
:1012A00081E010CE85E00ECE8536910594F229CEF0
:1012B000643071050CF069CEE430F10509F054C0DA
:1012C0002C9130E0235D3F4F2817390719F48236FF
:1012D00091059CF011962C91119730E0235D3F4FC2
:1012E0002817390751F012962C91129730E0235DA0
:1012F0003F4F2817390709F07BCF82E1E3CDE43176
:10130000F10509F0A3CF8E3291050CF4A2CF2C91F8
:1013100030E0235D3F4F2817390721F082369105D1
:101320000CF461CF853691050CF09ACF83E1CACDDC
:101330008236910509F074CF6BCFE431F10509F4E1
:1013400039CE12C08430910509F427CE8E31910533
:1013500009F025CEE431F10584F7BF016950710928
:101360006430710508F019CEE530F10509F03DCE85
:10137000E9014881443040F04C9150E0435D5F4FBB
:101380004817590709F4B9CFE9014981443050F0B1
:1013900011964C91119750E0435D5F4F48175907E4
:1013A00009F4ABCFE9012A81243008F09CCF8D32BB
:1013B000910509F4A2CF8236910509F0A0CFE4315E
:1013C000F1050CF49ACFE431F10509F045CF80E145
:1013D00079CDEF92FF920F931F93CF93DF93CDB709
:1013E000DEB76E970FB6F894DEBF0FBECDBF0E947A
:1013F000B40F8BE1ECE9F1E0DE01119601900D9262
:101400008A95E1F77E018DE1E80EF11CC7010E948B
:101410001B0D2BE1AE014F5F5F4F70E060E0C70135
:101420000E949B0E10E000E0AE01445E5F4FB801E9
:10143000C7010E942C0D6C8DCE014E960E94760F36
:101440000F5F1F4F0B31110579F7C7010E94110D76
:101450006E960FB6F894DEBF0FBECDBFDF91CF9171
:101460001F910F91FF90EF9008952F923F924F920E
:101470005F926F927F928F929F92AF92BF92CF9224
:10148000DF92EF92FF920F931F93CF93DF9300D0E1
:1014900000D000D00F92CDB7DEB74C016A837B83BA
:1014A0004C835D832E833F83302E212EBE2C0E94E1
:1014B000B40F512C412C712C612CAB2CC32CD22C91
:1014C000EE80FF800C811D812A813B81A301B20146
:1014D000C4010E944907E82FF0E0EE0FFF1FE80D5E
:1014E000F91D60817181CE0101960E948D0F8FEFF1
:1014F000681A780AE6E66E167104F9F6F40166A534
:1015000077A5CE0101960E948D0FFFEF4F1A5F0A5B
:101510008BE14816510479F6BB2019F0C4010E94F2
:10152000E90927960FB6F894DEBF0FBECDBFDF9155
:10153000CF911F910F91FF90EF90DF90CF90BF90D0
:10154000AF909F908F907F906F905F904F903F9063
:101550002F9008951092850010928400E1E8F0E049
:1015600080818160808308951092850010928400AC
:101570000895809184009091850090935703809303
:101580005603E091530381E08E0F80935303F0E004
:101590008091560390915703EE0FFF1FE554FE4FC5
:1015A000918380830895282F90E081E0961301C0F5
:1015B0000895829F802D11249F5FF8CF1F920F9274
:1015C0000FB60F9211242F933F934F935F936F9316
:1015D0007F938F939F93AF93BF93EF93FF93CF939B
:1015E000DF9300D000D0CDB7DEB7CE0101960E94C8
:1015F000110CCE0101960E94540C8091580391E089
:10160000892780935803809158038823D9F010923A
:101610008500109284000F900F900F900F90DF9133
:10162000CF91FF91EF91BF91AF919F918F917F915A
:101630006F915F914F913F912F910F900FBE0F903F
:101640001F9018950E94B90AE6CFCF92DF92EF92D1
:10165000FF920F931F93CF93DF93CDB7DEB7C15E99
:10166000D1090FB6F894DEBF0FBECDBF8C01CE01FD
:1016700087529F4F0E94110C809153038C3CE0F3E2
:10168000F894FE013196AF012BEC30E061E0D90116
:10169000AA0FBB1FA554BE4F8D919C91DC01A05792
:1016A000B741A031B74208F4B3C08037A7E19A0729
:1016B00008F4B0C088569244883E904808F4ACC004
:1016C000D8011C966C9389E0DA018D93AD0121500D
:1016D0003109E8F68FEF9FEF20E03081DF0131968E
:1016E0003730B9F440E030E0FE9060E051E071E066
:1016F000760F641393C05F9D300D1124472F78300F
:1017000099F7ADECB0E0AC0FBD1FA20FB11D3C933B
:101710002F5F01968B3C910501F7C852DF4F58812E
:10172000C85DD040F8015083CE52DF4FF880C25DD3
:10173000D040C952DF4F4881C75DD040CF52DF4F04
:101740003881C15DD040C253DF4F88819981CE5C22
:10175000D04098278927982792878187CA52DF4FE0
:101760002881C65DD040CE52DF4F88819981AA8101
:10177000BB81C25DD040C252DF4F88839983AA8368
:10178000BB83CE5DD040BC01CD010E94D0106383ED
:10179000748385839683C053DF4F8881C05DD040BA
:1017A000C353DF4F9881CD5CD0409387952F940F22
:1017B0009183250F290F22839F2D930F97838F0DE0
:1017C000890F80870E94B40F78016801BCE0CB0EBE
:1017D000D11CF70161917F01CE0183529F4F0E947E
:1017E000760FCE14DF04A9F781E0D8011D968C9303
:1017F000CF51DF4F0FB6F894DEBF0FBECDBFDF91E4
:10180000CF911F910F91FF90EF90DF90CF900895AF
:1018100081E05ACF80E058CF87E056CF550F672F31
:1018200066CFFC0182E290E091838083128281E0A6
:101830008383099A089A08950F93DC01FA0111969F
:101840007C936E9312962C93129713960C9330817F
:1018500081E090E0AC0101C0440F0A95EAF7342B17
:101860003083308101C0880F2A95EAF7832B80836B
:101870000F910895FC01A081B1812C91328181E00A
:1018800090E0AC0101C0440F3A95EAF7242B2C9369
:10189000A081B1812C91338101C0880F3A95EAF77C
:1018A000809582238C930895FC01A081B1812C91B5
:1018B000338181E090E0AC0101C0440F3A95EAF732
:1018C000242B2C93A081B1812C91328101C0880FEF
:1018D0003A95EAF7809582238C930895CF93DF930E
:1018E000D82FC92F0E94540C8FE19EE40197F1F785
:1018F00000C000008D2F9C2F0E943A0C8FE99FE0C2
:101900000197F1F700C00000DF91CF910895FC012D
:10191000A081B1814C91828121E030E0B90102C007
:10192000660F771F8A95E2F7CB01938101C0220FE2
:101930009A95EAF7822B809584238C93089587B13A
:10194000837887B9089586B183FB882780F9089545
:1019500086B185FB882780F9089586B182FB8827A8
:1019600080F9089586B186FB882780F9089586B1AD
:1019700082958170089532990BC0339909C03499CA
:1019800007C0359905C086B186FB882780F9089580
:1019900081E00895369B07C0349907C086B183FB68
:1019A000882780F9089580E0089581E00895329BAA
:1019B00007C0349907C086B185FB882780F9089550
:1019C00080E0089581E00895CF93DF93D82FC92F49
:1019D0000E94CA0C81111FC08D2F9C2F0E94D70C12
:1019E00081111CC0369907C032990EC084E090E086
:1019F000DF91CF9108958D2F9C2F0E94CA0C8111E9
:101A0000F3CF82E090E0F4CF8D2F9C2F0E94D70C73
:101A100090E00396EDCF90E080E0EACF81E090E0A7
:101A2000E7CF089580EA809301011092B90080E227
:101A30008093B8000895FC0180E88083CF010C9466
:101A4000120D982F9370891305C0880F806A8093B8
:101A5000010108958FEF0895FA0194EA24E8909324
:101A6000BC008091BC0087FFFCCF80910101809376
:101A7000BB002093BC008091BC0087FFFCCF80910D
:101A8000B900883161F784EA8093BC008091BC0082
:101A900087FFFCCF809101018093BB0084E8809395
:101AA000BC008091BC0087FFFCCF7093BB0084E832
:101AB0008093BC008091BC0087FFFCCF6093BB008B
:101AC00084E88093BC008091BC0087FFFCCF8091AC
:101AD000BC0087FFFCCF84EA8093BC008091BC00EF
:101AE00087FFFCCF809101018F5F8093BB0084E86A
:101AF0008093BC008091BC0087FFFCCF84E880937A
:101B0000BC008091BC0087FFFCCF8091BB0080832C
:101B100084E98093BC0080E0089594EA34E89093CF
:101B2000BC008091BC0087FFFCCF809101018093B5
:101B3000BB003093BC008091BC0087FFFCCF80913C
:101B4000B900883161F784EA8093BC008091BC00C1
:101B500087FFFCCF809101018093BB0084E88093D4
:101B6000BC008091BC0087FFFCCF7093BB0084E871
:101B70008093BC008091BC0087FFFCCF6093BB00CA
:101B800084E88093BC008091BC0087FFFCCF84EA8E
:101B90008093BC008091BC0087FFFCCF8091010145
:101BA0008F5F8093BB0084E88093BC008091BC0071
:101BB00087FFFCCF84EC211105C084E98093BC0031
:101BC00080E00895213009F484E88093BC0090916E
:101BD000BC0097FFFCCFFA019091BB00919321507C
:101BE000AF01E9CF94EA24E89093BC008091BC0057
:101BF00087FFFCCF809101018093BB002093BC0044
:101C00008091BC0087FFFCCF8091B900883161F7DB
:101C100084EA8093BC008091BC0087FFFCCF809158
:101C200001018093BB0084E88093BC008091BC00DC
:101C300087FFFCCF7093BB0084E88093BC00809149
:101C4000BC0087FFFCCF6093BB0084E88093BC009E
:101C50008091BC0087FFFCCF4093BB0084E8809359
:101C6000BC008091BC0087FFFCCF84E98093BC005E
:101C700080E00895FB01260F372F311DDC018C9188
:101C80008150990B862B9F2B2817390718F09C0140
:101C90002F5F3F4F822F8E1B24EA34E82093BC0035
:101CA0009091BC0097FFFCCF909101019093BB00F5
:101CB0003093BC009091BC0097FFFCCF9091B9008D
:101CC000983161F794EA9093BC009091BC0097FF23
:101CD000FCCF909101019093BB0094E89093BC00DD
:101CE0009091BC0097FFFCCFF093BB0094E89093D9
:101CF000BC009091BC0097FFFCCFE093BB0094E840
:101D00009093BC009091BC0097FFFCCF982F24E8E3
:101D1000911104C094E99093BC000895FA013191A7
:101D20003093BB002093BC003091BC0037FFFCCF48
:101D30009150AF01EDCFDF92EF92FF920F931F937F
:101D4000CF93DF93D82ED92F7B018A01C22F2C2F5E
:101D5000A801B7018D2D9D2F0E943A0E282F30E04B
:101D6000E20EF31EC81B020F131FC111F0CF80E05B
:101D7000DF91CF911F910F91FF90EF90DF90089529
:101D8000CF93DF9300D000D000D0CDB7DEB7DC0119
:101D900029833A834B835C836D837E8386E0FE01D7
:101DA000319601900D928A95E1F726960FB6F89438
:101DB000DEBF0FBECDBFDF91CF910895CF93DF93EC
:101DC000CDB7DEB762970FB6F894DEBF0FBECDBFBA
:101DD0004D875E876F87788B898B9A8B86E0FE01B3
:101DE0003D96DE01119601900D928A95E1F786E00D
:101DF000FE013196DE01179601900D928A95E1F76A
:101E000086E0FE013796DE01119601900D928A95CB
:101E1000E1F729813A814B815C816D817E8180E08F
:101E200090E062960FB6F894DEBF0FBECDBFDF9193
:101E3000CF9108950F931F93CF93DF93D82FC92F7E
:101E4000162F042F40E060E00E941010402F612FF9
:101E50008D2F9C2FDF91CF911F910F910C944410E7
:101E60000F931F93CF93DF93D82FC92F162F042FD3
:101E700041E061E00E941010402F612F8D2F9C2FB8
:101E8000DF91CF911F910F910C9444100F931F93EA
:101E9000CF93DF93D82FC92F162F042F41E060E096
:101EA0000E941010402F612F8D2F9C2FDF91CF911A
:101EB0001F910F910C9444100F931F93CF93DF93B6
:101EC000D82FC92F162F042F40E061E00E94101078
:101ED000402F612F8D2F9C2FDF91CF911F910F915C
:101EE0000C94441040E060E00C9444108091C000D9
:101EF00085FFFCCF6093C60008951092C5008FEC5B
:101F00008093C400E1ECF0E0808188618083E2ECA2
:101F1000F0E08081866080830895EF92FF920F93B6
:101F20001F93CF93DF93F82EE92EEB01DB010D9089
:101F30000020E9F78D0101501109C017D10739F4CC
:101F4000DF91CF911F910F91FF90EF9008956991CC
:101F50008F2D9E2D0E94760FF0CF8091C00087FFBD
:101F6000FCCF8091C6000895CF93DF930F92CDB739
:101F7000DEB7CE0101960E947D0F80E00F90DF91C9
:101F8000CF9108950895FC0186E0828387E08383E2
:101F900085E0848384E085838AB1806F8AB910925A
:101FA000B2008FEF8093B3008093B40081EF8093F1
:101FB000B00082E08093B1000895EF920F93FC018E
:101FC000DB01428323830483E5823C9161E070E07E
:101FD000CB0101C0880F0A95EAF7FB0101C0EE0FA3
:101FE000EA94EAF78E2BFB0101C0EE0F2A95EAF77F
:101FF0008E2B01C0660F4A95EAF7862B832B8C93B4
:102000001092B2008FEF8093B3008093B40081EF01
:102010008093B00082E08093B1000F91EF9008951B
:10202000FC01611119C02BB1348181E090E001C045
:10203000880F3A95EAF7809582238BB9411118C031
:102040002BB1358181E090E001C0880F3A95EAF725
:10205000809582238BB90895613081F78BB194818B
:1020600021E030E001C0220F9A95EAF7822BE5CFFC
:10207000413089F78BB1958121E030E001C0220F1A
:102080009A95EAF7822BE6CF24E6822F861B3FEF54
:10209000839FC0011124E4E6F0E0BF010E94BC1060
:1020A0006093B300241B239FC0011124BF010E9431
:1020B000BC106093B40008950895E1E8F0E08081D9
:1020C0008860808380818460808310928500109274
:1020D000840085E39CE09093890080938800EFE67C
:1020E000F0E08081826080831092600310925F0331
:1020F000789408951092600310925F031092850007
:1021000010928400E1E8F0E080818460808308958B
:10211000E1E8F0E08081887F8083089580915F030B
:102120009091600308958F938FB78F939F938091C1
:102130005F039091600301969093600380935F0327
:102140009F918F918FBF8F911895CDB7DEB7CC57E8
:10215000D1090FB6F894DEBF0FBECDBF8E010F5F61
:102160001F4FC8010E94C500C8010E948701FCCF13
:102170008BE593E00C94110C97FB072E16F400945A
:1021800007D077FD09D00E94D71007FC05D03EF498
:10219000909581959F4F0895709561957F4F089513
:1021A0006927962769277827872778270895AA1B04
:1021B000BB1B51E107C0AA1FBB1FA617B70710F032
:1021C000A61BB70B881F991F5A95A9F78095909564
:1021D000BC01CD010895EE0FFF1F0590F491E02D95
:0621E0000994F894FFCF02
:1021E60001A038013A013E01420146014A014E0171
:1021F600520156015A015E01620166016A016E01D1
:10220600720176017A017E013801820186018A0116
:102216008E019001940198012000E2948C00E294D2
:102226008000E2949000E2949400E2949800E29494
:102236008200E2948F00E2948100E2949300E2949B
:102246009B00E2949700E2948300E2959400E29565
:102256009000E2959700E2959D00E2959A00E2953E
:102266009100E295A300E295A600E295A9000A0076
:10227600E295B100E295B200E296A90050726F6451
:10228600756974207061723A204D6F75737175654A
:082296007461697265730000B8
:00000001FF
